:107800000C942A3C0C94473C0C94473C0C94473C09
:107810000C94473C0C94473C0C94473C0C94473CDC
:107820000C94473C0C94473C0C94473C0C94473CCC
:107830000C94473C0C94473C0C94473C0C94473CBC
:107840000C94473C0C94473C0C94473C0C94473CAC
:107850000C94473C11241FBECFE5D8E0DEBFCDBF5E
:1078600010E0A0E6B0E0E2ECFEE702C005900D9269
:10787000A236B107D9F711E0A2E6B0E001C01D922F
:10788000AD36B107E1F70E94FD3C0C945F3F0C94CC
:10789000003C982F9595959595959595905D8F7051
:1078A0008A3044F0895A5D9BFECF9CB95D9BFECF28
:1078B0008CB90895805DF7CF5D9BFECF8CB908959C
:1078C000EF92FF920F931F93EE24FF2487015F999D
:1078D00015C00894E11CF11C011D111D81E2E81680
:1078E00081EAF80687E0080780E0180780F3E09156
:1078F0006400F091650009955F9BEBCF8CB11F91FF
:107900000F91FF90EF9008950E94603C5D9BFECF29
:107910008CB9813624F480330CF080530895875558
:1079200008951F930E94843C182F0E94843C129556
:10793000107F810F1F9108951F93182F882321F026
:107940000E94603C1150E1F71F9108951F93182F7A
:107950000E94603C803249F0809163008F5F809389
:107960006300853079F01F9108955D9BFECF84E11F
:107970008CB95D9BFECF1CB95D9BFECF80E18CB9BD
:107980001F910895E0916400F091650009951F91A1
:1079900008950E94603C803241F0809163008F5FC7
:1079A00080936300853051F008955D9BFECF84E1A4
:1079B0008CB95D9BFECF80E18CB90895E0916400A5
:1079C000F09165000995089548EC50E08823A1F0F6
:1079D000C09A28EE33E0FA013197F1F72150304098
:1079E000D1F7C09828EE33E0FA013197F1F7215032
:1079F0003040D1F7815061F708952F923F924F9216
:107A00005F926F927F928F929F92AF92BF92CF922E
:107A1000DF92EF92FF920F931F93CF93DF930000BB
:107A200010BC89E189B988E18AB986E880BDB89A35
:107A300081E00E94E43CB4E19B2EAEE18A2EF5E9A0
:107A40007F2EE2E06E2E70E1572E4424439461E4D1
:107A5000362E56E5252E0E94603C8033B1F18133ED
:107A6000B9F1803409F459C0813409F45FC082341B
:107A700009F46DC0853409F470C0803531F1823568
:107A800021F1813511F1853509F46DC0863509F490
:107A900075C0843609F48EC0843709F4F4C0853784
:107AA00009F45DC1863709F44EC0809163008F5F91
:107AB00080936300853079F6E0916400F091650071
:107AC00009950E94603C803351F60E94C93CC3CFA7
:107AD0000E94603C803249F75D9BFECF9CB85D9B65
:107AE000FECF3CB85D9BFECF2CB85D9BFECF82E500
:107AF0008CB95D9BFECF80E28CB95D9BFECF89E4A3
:107B00008CB95D9BFECF83E58CB95D9BFECF80E594
:107B10008CB95D9BFECF5CB89ECF0E94603C8638DE
:107B2000A0F20E94603C0E94C93C95CF0E94603C3C
:107B30008038E1F1813809F40EC1823809F424C19A
:107B4000883909F49CC080E00E94A63C84CF84E17F
:107B50000E949C3C0E94C93C7ECF85E00E949C3CD8
:107B60000E94C93C78CF0E94603C809366000E94CE
:107B7000603C809367000E94C93C6DCF0E94603CCE
:107B8000803339F083E00E949C3C80E00E94A63C58
:107B900062CF0E94603C0E94603C182F0E94603CB3
:107BA000112309F473C1113009F4F2C082E00E947C
:107BB000A63C51CF0E94603C809369010E94603CCA
:107BC0008093680180916C018E7F80936C010E948C
:107BD000603C853409F4E0C08091680190916901AE
:107BE000892B89F000E010E00E94603CF801E85920
:107BF000FF4F80830F5F1F4F809168019091690153
:107C00000817190788F30E94603C803209F04DCFB5
:107C100080916C0180FFCCC020916600309167009C
:107C2000220F331F30936700209366008091680114
:107C300090916901892BE1F000E010E0F801E8592A
:107C4000FF4FC90160810E94523F20916600309130
:107C500067002F5F3F4F30936700209366000F5FF0
:107C60001F4F80916801909169010817190730F33F
:107C70005D9BFECF9CB85D9BFECF5CB8ECCE83E0F5
:107C80000E94A63CE8CE0E94603C809369010E945D
:107C9000603C809368018091660090916700880F36
:107CA000991F90936700809366000E94603C853422
:107CB00009F478C080916C018E7F80936C010E94E2
:107CC000603C803209F0C7CE5D9BFECF9CB8C0906F
:107CD0006801D0906901C114D10439F180916C011F
:107CE000BB24B394B82292E0A92EA822EE24FF244C
:107CF0000FC0E0916600F09167003196F093670045
:107D0000E09366000894E11CF11CEC14FD0468F497
:107D1000BB2081F4AA2069F7E0916600F09167002A
:107D200084915D9BFECF8CB9E8CF5D99F4CE5D9BCD
:107D3000FCCFF1CE0091660010916700C8010E944F
:107D40004A3F5D9BFECF8CB90F5F1F4F10936700BA
:107D500000936600D7CF81E00E94A63C7CCE0E94B3
:107D6000603C803209F0A1CE5D9BFECF9CB85D9B4C
:107D7000FECF8CB85D9BFECF7CB85D9BFECF6CB810
:107D80005D9BFECF5CB867CE80E10E94A63C63CECF
:107D900085E90E94A63C5FCE80916C018160809352
:107DA0006C011ACF80916C01816080936C0187CF48
:107DB000809167008823880F880B842180936B0152
:107DC0008091660090916700880F991F90936700DB
:107DD000809366008091680180FF09C080916801EE
:107DE0009091690101969093690180936801F894DC
:107DF000E199FECF1127E0916600F0916700C8E697
:107E0000D0E08091680190916901103091F4009167
:107E1000570001700130D9F303E000935700E89553
:107E20000091570001700130D9F301E10093570030
:107E3000E895099019900091570001700130D9F32D
:107E400001E000935700E8951395103498F011273E
:107E50000091570001700130D9F305E000935700FD
:107E6000E8950091570001700130D9F301E10093CA
:107E70005700E8953296029709F0C7CF103011F0FD
:107E80000296E5CF11245D9BF3CEF4CE8EE10E94E5
:107E9000A63CE1CDE199FECF9FBB8EBBE09A99272E
:107EA0008DB30895262FE199FECF9FBB8EBB2DBBCE
:107EB0000FB6F894E29AE19A0FBE01960895F894ED
:027EC000FFCFF2
:027EC20080003E
:040000030000780081
:00000001FF
