:100000000C942D000C943F000C943F000C943F0086
:100010000C943F000C943F000C943F000C943F0064
:100020000C943F000C943F000C943F000C943F0054
:100030000C943F000C943F000C943F000C943F0044
:100040000C943F000C943F000C94C9000C943F00AA
:100050000C943F006D63312E300011241FBECFE59C
:10006000D8E0DEBFCDBF14E0A0E6B0E001C01D9235
:10007000AC36B107E1F70E9409010C94EE010C9433
:10008000000083E088BB80E182BB82BB24E122BB0D
:1000900022BB82BB82BB22BB91E098BB82BB82BBEE
:1000A00022BB98BB82BB82BB22BB98BB82BB82BBFC
:1000B00022BB82BB82E08EBD1DBC1CBC8CB58530D2
:1000C000E8F354E152BB52BB90E192BB92BB52BBEE
:1000D00052BB92BB92BB52BB46B392BB92BB52BBCC
:1000E00086B34170440F8170482B92BB92BB52BBC8
:1000F00086B3440F8170482B92BB92BB52BB86B330
:10010000440F8170482B4093640492BB92BB52BB56
:1001100026B392BB92BB52BB86B32170220F817073
:10012000282B92BB92BB52BB86B3220F8170282B27
:1001300092BB92BB52BB86B3220F8170282B92BB1D
:1001400092BB52BB86B3220F8170282B92BB92BB0D
:1001500052BB86B3220F8170282B92BB92BB52BB3D
:1001600086B3220F8170282B92BB92BB52BB86B301
:10017000220F8170282B209365048CE182BB30E034
:10018000942F80E0282B392B30936704209366044A
:1001900008951F920F920FB60F9211242F933F9341
:1001A0004F935F936F937F938F939F93AF93BF937F
:1001B000EF93FF930E944100E0916604F091670481
:1001C000F695E795F695E795F695E795F09367042C
:1001D000E0936604EE0FFF1FEC59FF4F8081918181
:1001E00001969183808381E080936000AF98AF9AFD
:1001F000FF91EF91BF91AF919F918F917F916F91FF
:100200005F914F913F912F910F900FBE0F901F90D4
:100210001895AF92BF92CF92DF92FF920F931F93E8
:10022000CF93DF9392E097BB8CE981BB80E884BBDE
:1002300085BB88E18AB910BC8CE089B986EA80BDAB
:1002400080E488B99EBD109269041092680414E499
:10025000C1E0D0E00BE4E3E4FE2E73E0C72E74E0CF
:10026000D72E62E0A62E64E0B62E809168049091AD
:100270006904FC01EE59FF4F0196880F991F880F02
:10028000991F880F991F9C01220F331F220F331FC4
:10029000280F391F5F9BFECF8CB181936091620064
:1002A000A901485D5F4F862F90E08217930710F0F9
:1002B0009A01F0CF109261001DBC1CBC109362002B
:1002C000D0936904C09368046A30D1F16B30A0F414
:1002D000613009F468C0623009F44CC0F0926200E9
:1002E0005D9BFECF809162008CB9843469F01092DE
:1002F000690410926804B9CF6C3081F16C3048F118
:100300006D3061F74398ECCFD0936B04C0936A04CF
:1003100040916804509169044230510540F3E3E68E
:10032000F0E09A012E593F4F5D9BFECF81918CB931
:10033000E217F307C9F750936B0440936A04D7CFD1
:10034000BB9880B7877F80BF08B9AF98AF9A789481
:10035000C7CFB0926904A0926804C2CFE3E6F0E090
:10036000119284E0E536F807D9F7D0926B04C09279
:100370006A04B6CF0E94410080916804909169049C
:10038000FC01EE59FF4F2091650420830196FC018A
:10039000EE59FF4F209164042083019690936904E5
:1003A000809368049DCF83E690E064E570E045E0CB
:1003B00050E00E94E50180916804909169040596DF
:1003C00090936904809368048BCFFB01DC0102C029
:1003D00005900D9241505040D8F70895F894FFCF02
:00000001FF
