:100000000C942A000C9447000C9447000C94470071
:100010000C9447000C9447000C9447000C94470044
:100020000C9447000C9447000C9447000C94470034
:100030000C9447000C9447000C9447000C94470024
:100040000C9447000C9447000C9447000C94470014
:100050000C94470011241FBECFE5D4E0DEBFCDBF16
:1000600010E0A0E6B0E0EAE6F1E002C005900D92F3
:10007000A436B107D9F710E0A4E6B0E001C01D92A4
:10008000A536B107E1F70E94A4000C94B3000C94CC
:100090000000DF93CF9300D0CDB7DEB79A8389837A
:1000A00089819A81892B49F089819A8101979A8364
:1000B000898389819A81892BB9F70F900F90CF910D
:1000C000DF9108950F931F93DF93CF9300D0CDB7A7
:1000D000DEB7DC011816190644F54091640020E0F3
:1000E00030E008EB1BE06115710531F1433051F14F
:1000F0004F5FE42FF0E0E05AFF4F80818BBB1A8303
:10010000098389819A81892B49F089819A81019794
:100110009A83898389819A81892BB9F72F5F3F4F11
:100120002A173B0704F3409364000F900F90CF9180
:10013000DF911F910F910895442311F443E0D9CF2B
:100140004150D7CF40E0D5CF8FE08ABB84E690E026
:1001500060E070E00E94620084E690E061E070E0A0
:0A0160000E946200F3CFF894FFCF75
:04016A000C06030973
:00000001FF
