:100000000C942A000C9434000C9434000C943400AA
:100010000C9434000C9434000C9434000C94340090
:100020000C9434000C9434000C9434000C94340080
:100030000C9434000C9434000C9434000C94340070
:100040000C9434000C9434000C9434000C94340060
:100050000C94340011241FBECFE5D8E0DEBFCDBF25
:100060000E9436000C9459000C94000088E18AB973
:1000700010BC8CE089B986E880BD93E65F9BFECF1B
:100080008CB18130A1F0823059F08330B9F75F9B99
:10009000FECFECB1F0E05F9BFECF8CB18083EECF62
:1000A0005F9BFECFECB1F0E080818CB9E7CF9CB9CB
:0600B000E5CFF894FFCF3C
:00000001FF
