:020000040000fa
:080000000002040000000000f2
:020000040000fa
:10000800461500004615000046150000461500007c
:10001800461500004615000046150000461500006c
:10002800461500004615000046150000461500005c
:10003800e8030000461500004615000038140000cb
:10004800461500004615000046150000461500003c
:1000580046150000d2020000f0030000461500001b
:10006800461500004615000046150000461500001c
:10007800461500004615000046150000461500000c
:10008800f80300004615000046150000461500005c
:1000980046150000461500004615000046150000ec
:1000a80046150000461500004615000046150000dc
:1000b800fc03000046150000b207000046150000ca
:1000c80046150000461500004615000046150000bc
:1000d80046150000461500004615000046150000ac
:1000e800461500004615000046150000461500009c
:1000f800461500004615000046150000461500008c
:10010800461500004615000046150000461500007b
:10011800461500004615000046150000461500006b
:10012800461500004615000046150000461500005b
:10013800461500004615000046150000461500004b
:10014800461500004615000046150000461500003b
:10015800461500004615000046150000461500002b
:10016800461500004615000046150000461500001b
:10017800461500004615000046150000461500000b
:1001880046150000461500004615000046150000fb
:1001980046150000461500004615000046150000eb
:1001a80046150000461500004615000046150000db
:1001b80046150000461500004615000046150000cb
:1001c80046150000461500004615000046150000bb
:1001d80046150000461500004615000046150000ab
:1001e800461500004615000046150000461500009b
:1001f800461500004615000046150000461500008b
:10020800461500004615000046150000461500007a
:10021800461500004615000046150000461500006a
:10022800461500004615000046150000461500005a
:10023800461500004615000046150000461500004a
:10024800461500004615000046150000461500003a
:10025800461500004615000046150000461500002a
:10026800461500004615000046150000461500001a
:0c02780046150000461500004615000069
:020000040000fa
:100400004f1027000eff27000e018800000000009b
:10041000000020000000e000020032000001200087
:10042000200288000c00070000e3290001002000e2
:100430000f000700000020000000e0000200320072
:100440000000020000000000009002000000000018
:100450000040da000000fe00800020000000e00004
:1004600002003200002020009001880000000600f9
:10047000a1028800800078000000eb001a0037001d
:10048000e280400054a0b4009101ba00e280400034
:1004900054a0b4009102ba00e280400054a0b4001d
:1004a0000002eb00472bde00f507b200a601880032
:1004b000602ce10008003a000049eb000201e8006e
:1004c000020039003420ec0002f0a0008301e900b2
:1004d000f9ff3e00040037006128e100010032000e
:1004e0000082eb00040007001101ba000200e000e6
:1004f000e3ff3a000000060004d0a300e20f490029
:100500001c003900810278003549ba000201e80078
:10051000020039003420ec0002f0a0008301e90061
:100520000f0032002549ba000201e800020039003c
:100530003420ec0002f0a0008301e9000800320042
:100540000400e0000600320015c9ba000201e8000c
:10055000020039003420ec0002f0a0008301e90021
:100560008180e80054a0b4000300e000e2ff3a00fc
:10057000000006009102ba00055978008301e900e5
:10058000f7ff3200c82ade00055978008301e90030
:10059000f3ff32000400e000f1ff320011d9ba008d
:1005a000eeff3700809fbe00829fbe00849fbe008a
:1005b000869fbe00889fbe008a9fbe008c9fbe00a3
:1005c0008e1f7800e487470001a8a9007e50e20052
:1005d00075003a001150e2002200320010818000c4
:1005e0000118800001187800108188000e50e20088
:1005f00012003200208180001e1880000e18780042
:10060000208188000ed0bf00e14f50000b00360063
:100610004081800021188000011878004081880006
:100620000ed0bf00e24f5000040036005081800021
:100630003e1880000e187800508188000010ec00f1
:10064000008088008210e30057003a0001a8a9004a
:1006500021a8a90010c0b3007ef0b700244ea80066
:1006600051003700f08080000043780066f0b7004a
:100670004484800010d0bf000080fb006104600053
:10068000e2056000e406600068006000f0bf9f00c3
:1006900057848000e98080006a854400538280008e
:1006a000d2808000250121009542780001002200bf
:1006b0001cc0b30031003700244ea8000e4080005b
:1006c0000e806000fdff320001a8a9002003ab00ee
:1006d000feff3200244ea9000800e00002003200b4
:1006e000031880000c0037000b00e000020032000d
:1006f00013188000080037000d00e00002003200ef
:1007000023188000040037007fb897000000e00045
:100710000100320033188000070141000504e000a9
:1007200002003a00830f55000d003900838f5400fa
:100730000c0039000504e0000a00320053828800f2
:10074000d280880005477800210121008e4878007a
:1007500086407800600621000148780010003700cc
:100760008c427800820f520004003e000604e00034
:10077000020032000643e9000001eb00820f520044
:10078000cdff3e0053828800d2808800054078006b
:1007900012f0b70006477800610621008e48780005
:1007a00010c0b30011f0b7004f00b1004f07780040
:1007b0004f06be004f05be004f04be004f03be00f3
:1007c0004f02be004f01be004f00be0000400600b9
:1007d00001eba9000088a9002088a90000400600bc
:1007e00011eba90001c8a90021c8a900004006001a
:1007f0000308a900004006000488a9000040060084
:100800003be3a9003d03a9003d23a9003b83a900c8
:100810000000060042c1a8004ac1a80067006000ad
:1008200082ff2f00440a8000840161008301700070
:10083000430a8800040a800084016100830170007b
:10084000030a8800e7806000c30a8000030061009b
:1008500000807000c00a8800840a800004016100e2
:1008600002817000820a880000000600834aa90005
:1008700082eaa80082aaa900105480007000b30088
:100880000030a10010548800c0ff2f009c2ab60041
:100890009c8aa800e05480000060a0000070a100c5
:1008a000e05488009daaa8009d2aa9009dcaa8001e
:1008b000f0f82f00a22ab600c0ff2f00a20ab6004f
:1008c0000020a00010558800a26aa800f054800003
:1008d0000000a0000010a1000020a1000030a10035
:1008e000f0548800a1eaa800a12aa8009deaa80067
:1008f0006547a900000006000080fb00810f27006b
:100900000080400010407800e44f500002003a00a0
:10091000d6ff07000400370021c2b300814f50000a
:1009200001003a001e4ea90000000600e4874700bf
:10093000889fbe008a9fbe008c9fbe008e1f7800dd
:1009400000447800814578000247780083f79f00d3
:1009500004467800854678000028a90004a8a9006c
:1009600008407800e4ff07000884fb00890f270097
:1009700008844400184078000074a100f8072000a3
:10098000000064000af82f007235800082006500c4
:1009900081007000713588000b407800d6ff070099
:1009a0008b85fb008b844400194078000074a10003
:1009b0000004640083358000030565000a057400a7
:1009c0008a35880080ff2f004021b6005021b600f4
:1009d0004821b6005821b6004081a9005081a900e5
:1009e0004881a9005881a90011e1a9001061a9005e
:1009f0001021a900f0fc2f001021b6000621ef0005
:100a0000000a800000a0a00000b0a10000c0a1006a
:100a1000000a8800800a800000a0a00000b0a100a9
:100a200000c0a100800a8800400a800000a0a00049
:100a300000b0a10000c0a100400a8800c00a8000e8
:100a400000a0a00000b0a10000c0a100c00a880062
:100a50000c46e900630666004566dd00f0f92f00ec
:100a6000020a80008200600081007600010a88008e
:100a70008d46e900e3866600c56edd005001b600d4
:100a800000807600800a88004301a8005301a80076
:100a90004b01a8005b01a80000fe2f004221b60018
:100aa0005221b6004a21b6005a21b60042e1a900ff
:100ab00052e1a9004ae1a9005ae1a9009170800021
:100ac000005480004300de0061406000ca08de0080
:100ad000efc06000420020000200dd0000c0700096
:100ae00007f0b7008e0178006787610080ff2f0054
:100af000020a80008200600081007700010a8800fd
:100b00008ff19700e7806100830a80000301600095
:100b100002817000820a8800430a8000030160009d
:100b200002017700420a88005801b6000080700078
:100b3000c00a880042c1a8004ac1a80052c1a8004a
:100b40005ac1a80011e1a8004f0778004f06be0067
:100b50004f05be004f04be004f00b100000006006c
:100b6000889fbe008a9fbe008c1f780000447800da
:100b70000146780082447800034578008445780077
:100b8000084078005cff07000884fb00800f270006
:100b900008044000184078000074a100f007b2007b
:100ba00001f82f0082358000828060008100700093
:100bb0008135880080ff2f005021b6005821b600f3
:100bc000800a800000a0a00000b0a00000c0a0002b
:100bd000800a8800c00a800000a0a00000b0a00029
:100be00000c0a000c00a88008944e900e3846400d2
:100bf000c54cdd00f0f92f00820a80008200600001
:100c000081807400810a88005801b6000080740059
:100c1000c00a88005301a8005b01a80052e1a800a7
:100c20007f05650000fe2f00920a800082006000b0
:100c300081007500910a88005ae1a8005a01b600a7
:100c400000007500d00a880052c1a9005ac1a9004d
:100c500004a8a90004c8a9000b04e00009003200a0
:100c60006706660080ff2f00820a80008200600015
:100c700081007600810a88005801b60000007600e5
:100c8000c00a88004f0678004f05be004f04be0022
:100c900000000600889fbe008a9fbe0000447800c6
:100ca0008145780082447800034578000840780048
:100cb00011ff07000884fb00800f27000804400094
:100cc000184078000074a100f007b20001f82f006e
:100cd000723580008280600081007000713588006c
:100ce00080ff2f004021b6004821b600000a800096
:100cf00000a0a00000b0a00000c0a000000a880072
:100d0000400a800000a0a00000b0a00000c0a00029
:100d1000400a88008944e900e3846400c54cdd0092
:100d2000f0f92f00020a80008200600081807400c8
:100d3000010a88004801b60000807400400a88005b
:100d40004301a8004b01a80042e1a80000fe2f00cb
:100d50004221b6004ae1a8004a21b60042c1a900da
:100d60004ac1a9000028a90000a8a9000a04e000bf
:100d700009003200e785650080ff2f00020a80002d
:100d80008200600081807500010a88004801b60079
:100d900000807500400a88004f05be004f04be0069
:100da00000000600889fbe008a9fbe008c9fbe0088
:100db0000044780081457800024678008346780038
:100dc00008407800ccfe07000884fb00890f27004c
:100dd00008844400184078000074a100f80720003f
:100de000000064000af82f00723580008200650060
:100df00081007000713588000b407800befe07004e
:100e00008b85fb008b844400194078000074a1009e
:100e10000004640080358000000565000a05740048
:100e20008a35880080ff2f004021b6005021b6008f
:100e30004821b6005821b6004081a9005081a90080
:100e40004881a9005881a900000a800000a0a000e4
:100e500000b0a00000c0a000000a8800800a800046
:100e600000a0a00000b0a00000c0a000800a880080
:100e7000400a800000a0a00000b0a00000c0a000b8
:100e8000400a8800c00a800000a0a00000b0a000b6
:100e900000c0a000c00a8800f0f92f004021b60071
:100ea0005021b6004301a8005301a8004b01a8003f
:100eb0005b01a80042e1a90000fe2f004221b6001c
:100ec0004ae1a9004a21b60052e1a9005221b60028
:100ed0005ae1a9005a21b60042c1a9004ac1a9009d
:100ee00052c1a9005ac1a9000028a90004a8a9005c
:100ef0006706660080ff2f00020a80008200600003
:100f000081007600010a8800420a800082006000a9
:100f100081007600410a8800e7866600820a800028
:100f20008200600081807600810a88005801b60046
:100f300000807600c00a880042c1a8004ac1a8000b
:100f400052c1a8005ac1a8004f06be004f05be00fe
:100f50004f04be00000006009deaa9006547a800f6
:100f600000000600809fbe00829fbe00917080003e
:100f7000025480004311de0061416100ca08de00b6
:100f8000efc06000400020000011dd0082c0700052
:100f900081417800720021000349780081ff2f0011
:100fa000821520001289600004c8a90024c8a90085
:100fb00091708000025480004311de0061416100a5
:100fc000ca08de00efc060000010dd0000c0700045
:100fd00008f0b7004f01be004f00be000040060001
:100fe00042c1a9004ac1a90052c1a9005ac1a90021
:100ff00080ff2f004021b6004821b6005021b600e6
:101000005821b6004081a9004881a9005081a9005b
:101010005881a900000006004022ef000148a90005
:101020002148a900101280000000a1000010a000bb
:1010300010128800101280000020a0000030a100d3
:101040000040a100101288004382a9004362a90059
:1010500042e2a90006d0bf00e14f500002003a0072
:101060004342a900010037004342a8004302a80000
:1010700042c2a90042a2a8004322a90041e2a8005e
:1010800000000600e14f500007003a00e1806000d8
:10109000ca08dd00f0bf2f00040eb600008070000b
:1010a0002070880008003700e24f500006003a0028
:1010b000e1806000c708dd00f0f72f00040eb600e5
:1010c0000080700020708800000006000368a900fe
:1010d000d00888000180200012408000028060005b
:1010e000fdff320000000600f34f500008003e00f4
:1010f0004b00dd00cf80de000280210003102000c5
:10110000020240008382480084838800958388001f
:10111000000006001000200020498800d048880008
:1011200060002000f0488800a0488800f048800057
:1011300000a0a00000b0a00000c0a000f0488800ff
:10114000a048800000a0a00000b0a00000c0a00047
:10115000a0488800f001200000498800b0488800bd
:10116000f0ff200010498800c048880000fc2f00d4
:101170008c06b6002001b30060348800f10f2c000b
:101180005034800080806000003021000100700039
:1011900050348800000006008100e90031488800d2
:1011a0000000e900100888000029ef00600020001e
:1011b00000488800f03f2f000009b60000c0a000e2
:1011c00000488800630161004411dd00f0fc2f003d
:1011d0000401b6000000710020088800b000200063
:1011e0001048880005e1a800f00f2c008606b60024
:1011f00000c0a000303488000000060002fc2f0070
:101200004168200091086100f10f2c00c3682000a4
:101210009389600083682000930961008268200040
:10122000128960000004e00006003a006334800088
:10123000838060000010210001007000603488008d
:101240001f003700e14f500005003a0000fc2f005e
:101250008806b6001001b30040348800180037003b
:10126000e24f500007003a00f10f2c00403480009c
:101270008080600000102100010070004034880070
:101280000f003700e34f500005003a0000fc2f002c
:101290008406b6001001b30020348800080037002f
:1012a000e44f500006003a00f10f2c003234800069
:1012b000828060000010210001007000303488003e
:1012c000000006000c29ef001fe1a9000488a90016
:1012d0002488a90031eba9000104e00003003d00cf
:1012e00050c0b300c5ff0700530037000108a3003a
:1012f00022003200021020008248880002202000d4
:10130000724888000c29ef006200200052488800d3
:1013100062488000f201b3006248880052488000b1
:1013200002a0a00002b0a00002c0a00052488800a5
:10133000f2fc2f0003b320009309610031cba90018
:10134000c2ff2f0003b320009309610031aba80056
:1013500002912000e2598800b201200092598800d1
:1013600002002000b259880082cb2600a2598800d2
:10137000f21f2000f25988002100370002022000ed
:101380008248880002042000724888000c29ef007f
:10139000620020005248880062488000f201b300d9
:1013a000624888005248800002a0a00002b0a0005d
:1013b00002c0a00052488800f2fc2f0003b32000b6
:1013c0009309610031cba900c2ff2f0003b32000b5
:1013d0009309610031aba80002912000e259880016
:1013e000b20120009259880002002000b259880002
:1013f000820b2700a2598800f2012000f2598800d0
:101400000488a9002488a80031eba800c308dd00e7
:101410000103b200f2fc2f00f30880000301610019
:1014200002817000f2088800d00888001fe1a8003f
:1014300087d0bf0071ff0700000006000c29ef00f5
:10144000f30f2c00c4682000148a610031eba9005e
:101450008100e900814888000000e900d008880088
:1014600060002000504888005048800000a0a10083
:1014700000b0a00000c0a1005048880063016100d6
:101480004411dd00f0fc2f001e01b60000007100c9
:10149000f0088800e0002000604888001fe1a800f4
:1014a00030c0b30055ff070000000600f40f2c0009
:1014b000c5682000950a620031eba9000029ef0001
:1014c0000a29ef000229ef000c29ef0004488000f0
:1014d00004a0a00004b0a00004c0a000044888003c
:1014e0005448800004a0a00004b0a00004c0a000e4
:1014f0005448880032488800834888002048880083
:101500007148880010488000f001b300104888003e
:1015100060488000f001b3006048880002a9a8007c
:101520000d09a8000309a800504880000000a10090
:101530006000b30050488800004880000000a1000f
:101540006000b3000048880040c0b3002bff0700d4
:1015500000000600000980000040a0000050a1002b
:1015600000098800518480008100e900e1088800ba
:101570001821ef0021e1a8000000060021e1a900e8
:10158000010980000140a1000150a000010988006c
:101590000000e900e00888001821ef000388a90096
:1015a00021e1a800010021001240800002806000bb
:1015b000fdff320021e1a900000006002183a80000
:1015c0003303a800000006002183a9003303a9000b
:1015d00001eba9000000060001a8a90021a8a900ac
:1015e000f9ff07005cfe070021e3a9002223ef00ba
:1015f0003223ef002e23ef003023ef002143a80019
:1016000086d0bf007f00600001fe2f0042198000dd
:1016100082806000810070004119880025e3a900e4
:101620002083a900f0f12f002023b6002063a90039
:101630002043a900f00f2e002403b60000c0a00034
:101640002019880030f82f002223b600a0c0b30074
:1016500024e3b700000006001a30ef001270ef001c
:101660001170ef000000060001a8a90021a8a90040
:10167000d5ff070021e3a9002223ef003223ef006a
:101680002e23ef003023ef002143a80021a3a9005f
:1016900025e3a9002083a900f0cf2f002223b60064
:1016a00086d0bf007f00600001fe2f00421980003d
:1016b00082806000810070004119880028e3a90041
:1016c00000198000000eb30000198800f00f2e00f2
:1016d0002403b60000c0a00020198800a0c0b300f9
:1016e00024e3b70030f82f002203b600c003b30094
:1016f00010198800000006007f00600001fe2f0026
:1017000042198000828060008100700041198800c9
:101710002023a8002003ab00feff32000018800049
:10172000000006002e2eef002e0ef8001e0ef9000f
:101730000e0ea8000e2ea8001e0ea8001e2ea80039
:101740001e6ea8002e0ea8002e2ea8000000060077
:101750000000e000060032008000eb003f000900be
:10176000000000008100e800810f5000fbff3e00f8
:101770000000060001a8a90021a8a90092ff070007
:101780002223ef003223ef002e23ef003023ef005f
:1017900021e3a9002143a80021a3a90025e3a80073
:1017a0002083a900f0cf2f002223b60086d0bf00ef
:1017b0007f00600001fe2f004219800082806000df
:1017c000810070004119880028e3a90000198000f9
:1017d000000eb300001988002043a90030f82f0044
:1017e0002223b6002119800000f0210001007000c2
:1017f0002019880090c0b30024e3b70021e3a800bb
:1018000040012000d2ff0700000006006eff070025
:1018100021e3a9002143a8002083a900f0f92f00ab
:101820002003b6000070a000001988002043a80023
:1018300086d0bf007f00600001fe2f0042198000ab
:1018400082806000810070004119880028e3a900af
:1018500030f82f002223b6003223ef002e23ef00b2
:101860003023ef0001a8a90021a8a90090c0b3006f
:1018700024e3b70025e3a90021e3a80040012000ec
:10188000b3ff070021e1a90021a1a8000009800001
:101890000040a0000050a100000988001821ef00be
:1018a00021e1a8000388a9002388a9000000060000
:1018b0002023ef002223ef00610060004a00dd00da
:1018c000f1bf2f000219800082806000810070004b
:1018d00001198800f0f92f002003b6000070a00065
:1018e000001988002043a8002063a80086d0bf000c
:1018f0007f00600001fe2f0042198000828060009e
:10190000810070004119880028e3a9000fd0bf00b2
:1019100061006000e1ff2f003219800082806000ca
:10192000810070003119880090ff2f002623b60037
:1019300030f82f002223b6003223ef002e23ef00d1
:101940003023ef0001a8a90021a8a90010c0b3000e
:1019500024e3b70025e3a90018ff070021e3a8004e
:10196000400120007aff070021e1a90021a1a80081
:10197000000980000040a0000050a100000988007c
:101980001821ef000388a9002388a90001eba90012
:10199000f0fc2f00002bb600005880000000a000d3
:1019a0000010a1000058880001aba900d000200061
:1019b00010588800000006002023ef002223ef00cb
:1019c00001ff07002143a9002083a900f0f92f009f
:1019d0002003b6000070a000001988002043a80072
:1019e0002063a80086d0bf007f00600001fe2f00aa
:1019f00042198000828060008100700041198800d7
:101a000028e3a9000fd0bf0061006000e1ff2f00b4
:101a100032198000828060008100700031198800d6
:101a200090ff2f002623b60030f82f002223b600a7
:101a30003223ef002e23ef003023ef0001a8a9008e
:101a400021a8a90010c0b30024e3b70025e3a90032
:101a500021e3a800400120003dff070021e1a9008b
:101a600021a1a800000980000040a0000050a100b2
:101a7000000988001821ef0021e1a8000388a900cf
:101a80002388a90000000600889fbe008a1f7800f6
:101a900000447800814478000245780004d0bf00fb
:101aa000884f500007003a006108210091407800fb
:101ab00089cf500003003a000fd0bf008a4f50007a
:101ac0002900320086d0bf00e74f500002003200ec
:101ad000e54f500001003a001ffd070041002100c2
:101ae000884878000940780086f0b7000a407800fe
:101af0000ff0b700e14f540002003a00aeff0700bc
:101b000019003700e74f540003003a000040eb0093
:101b100067ff070014003700e84f540003003a0045
:101b200010c0b30062ff07000f003700e34f5400fe
:101b300002003a000fff07000b003700e64f540089
:101b400002003a0031ff070007003700e54f54005c
:101b500002003a00c4fe070003003700e44f5400bf
:101b600001003a009cfe07004f0578004f04be00bc
:101b700000000600e6874700889fbe008a9fbe00df
:101b80008c9fbe008e1f78000041eb0080407800e3
:101b900050c0b300bcff070021e3a80040012000b3
:101ba000ebfe07002043a80001a8a90001002200c5
:101bb0000240800002806000fdff320001a8a90001
:101bc0002003ab00feff32002043a90021e3a9005f
:101bd0000d1880001e1880002c1880003b18800013
:101be0004a18800059188000681880007718800013
:101bf0008618800095188000a4188000b318800013
:101c0000c2188000d018800080bf9f00e0188000bc
:101c1000f1188000f1b79f008d0647000c86460042
:101c20008b0546000a854500890445000884440068
:101c30008703440006834300850243000482420078
:101c400083014200028141008fb997008300410067
:101c500000804000ffb09700010040004f0778006f
:101c60004f06be004f05be004f04be006f00b1001e
:101c700000000600881f7800f80f2c00c3682000c1
:101c80009309640031eba9000421ef000029ef0063
:101c90000229ef000c29ef008001e90013088800f9
:101ca000d30888000000d1000000e9003048880017
:101cb0008048880060002000004888005048880064
:101cc000f03f2f000009b60000c0a00000488800c7
:101cd000f03f2f000a09b60000c0a000504888005d
:101ce000630161004411dd00f0fc2f000401b60027
:101cf00000007100200888000829ef008100e90039
:101d000091488800b0002000104888006048880092
:101d100005e1a80030c0b30038fd07003034800072
:101d20000004640008c0a00038348800803e200011
:101d300087fe07004f04780000000600889fbe0061
:101d40008144780011e1a90013e1a9001061a80005
:101d5000e24f400002003a001021a90014003700b1
:101d60000084fb00800f27000800400041c0b30042
:101d700090cf100001003a00bcfa0700800f270046
:101d800008044000184078000074a100f007b20079
:101d900001f82f00323580008280600081007000e1
:101da000313588001000200069fe07001021a800ce
:101db000e3846400c44cdd00f0fc2f001001b60089
:101dc00000807400800888000821ef000621ef00e1
:101dd0004f04be000000060021e1a9008040eb0096
:101de000d6ff0700000980000003b3000009880047
:101df0001821ef00801a2600e00888007042800059
:101e00000000a0000010a1000020a1007042880086
:101e10000388a90021e1a80011e1a8000000060044
:101e2000881f780000447800610161004c11dd00da
:101e3000f0ff2e003a03b60000007100d0198800b0
:101e4000f03f20003e23b600e3806000c808dd00bc
:101e5000f0cf2f003e03b60000807000f01988001c
:101e60003d03a9003b03a900fe4f540002003200cd
:101e70003d23a900010037003d23a8003be3a80053
:101e8000803e200032fe07003b23a800c05d2000fa
:101e90002ffe07003b23a9003ba3a9003d03a80098
:101ea0000840780033ff07000004780054fa070068
:101eb000080078004f0478000000060011eea90029
:101ec0000004e0000200320015eea8000100370017
:101ed00015eea900010078001dfe070015eea9000f
:101ee00011eea8000000000000000600881f780026
:101ef0000004780001352c000040eb00efff0700e4
:101f000001352c000040eb00ecff07000041eb0026
:101f100051c0b30001407800dbfe070021e1a900b9
:101f20001821ef000388a900e80888000009800054
:101f30000040a1000050a0000009880021e1a80095
:101f400011eea90015eea80001002100124080004a
:101f500002806000fdff32000388a90011eea80096
:101f600015eea90050c0b30002ff07004f0478002f
:101f700000000600889fbe008a1f78008044780019
:101f800001447800020578000041eb0051c0b30025
:101f900040c0b300bcfe07003b83a8004a44dd00fc
:101fa000f03f20003e03b60000007400f0198800e6
:101fb000e3846400c84cdd00f0cf2f003e03b60080
:101fc00000807400f019880021e1a90020c1a90057
:101fd000000980000040a1000050a0000009880016
:101fe000ea08880001352c000040eb00b3ff070031
:101ff00021e3a80040012000d5fd07002023a80010
:102000003be3a800803e2000d1fd07003b23a80051
:10201000c05d2000cefd07001821ef000388a90055
:102020002388a9003b23a9003d03a80021e1a800c3
:10203000010021001240800002806000fdff32009c
:102040000388a90001a8a9002023a9003d03a90035
:10205000010022000240800002806000fdff32008b
:1020600001a8a9002003ab00feff32000818800081
:10207000e3f9070021e3a900f0ff2000000064005d
:102080004f0578004f04be00000006000001eb0081
:10209000c33520000000e00009003a000a003700c4
:1020a0003f000900000000008100e900fcff3a0049
:1020b0000060fe000201e800820f500002003600be
:1020c00083007800f6ff37000000060002eb2500d1
:1020d000046b26008001eb0003297800840f510077
:1020e000fdff3a0002402000028288000002eb005f
:1020f0000380200022eb2500a90207000000000059
:102100000000000000000600889fbe008a9fbe00fd
:102110000004be008245780003057800ebff07004d
:102120004030ef008b85fb00c45ddd0000eb250037
:10213000808545000000eb00ba2d78000000e80023
:1021400000828800e80f5000fbff3a0032002400b4
:102150000800be004f0207004030ef000000eb0017
:102160002aeb2500fb1f2000000140008200e80050
:1021700081804000810145000201410002014500cb
:102180004200dd0008004000e0804c0013027800af
:102190008001eb0012017800720207004010ec0091
:1021a000008288008b0f5000efff36004f05be0005
:1021b0004f04be0000000600881f7800024478002b
:1021c000c2ff07000884fb004444dd0000eb25004b
:1021d00000044400006b2600f000400058287800fe
:1021e000810f5000fdff3a0080002000008288002f
:1021f0004f0478000000060010118000614060006c
:1022000000000600022020001311800083006100fe
:10221000fdff3a000080fb0020118800000006004e
:10222000022020001311800083006100fdff3a00ae
:102230008080fb0021118800022020001311800003
:1022400083006100fdff3a004800de002011880095
:1022500000000600032020001411800004816100aa
:10226000fdff3a000081fb002211880003202000be
:102270001411800004816100fdff3a004800de0077
:10228000201188000220200013118000030061004b
:10229000fdff3a000180fb00201188000220200091
:1022a0001411800004006100fdff3a00c808de0040
:1022b0002111880000000600022020001311800078
:1022c00083006100fdff3a000080fb0020118800c0
:1022d00000000600c8ff07000004e000fdff320018
:1022e0002242ab0004003200301180002222a900fb
:1022f0000040eb00010037003011800000000600b4
:10230000110ea8001f0ea90010eea900f10f2c005d
:1023100022348000828060000180a0002134880087
:1023200001f82f0022368000828060008102b30015
:10233000213688002002a90091ff2f0002222000f0
:102340001289600020a2a9002062a8004011880024
:10235000f0cf2f002022b6002162a800f0f32f005a
:102360002222b60021e2a8002342a8002082a90070
:10237000411a09000000000001003700d5ff0700e6
:102380009dff07000004e000fcff3a00000006008b
:10239000d0ff07000080fb0030828800cdff0700df
:1023a0000080fb00408288004800dd004610b70036
:1023b00000000600108ea800010ea800168ea800ce
:1023c000070ea8001a8ea8000b0ea8001622ef0018
:1023d000803e2000defc070017e2a9007a10f8001a
:1023e0001402f9001822ef001722a90017e2a80032
:1023f000803e2000d6fc070000000600e00320001d
:10240000303a8800f0f32f004427b60000fe2f007a
:102410004407b6000000a000203a8800a10920006f
:1024200032002000800720003374200080497800ab
:102430008149780082497800123a80000200a000a9
:10244000710520006004200023742000804978007a
:1024500081497800824978000200270001002300aa
:10246000133a800003006100810f5000fcff3a0026
:1024700001022000123a800002806000fdff32005d
:1024800080ff2f00c22ab60011cea90015cea800e9
:10249000112ea90020cea90020eea900210ea9002e
:1024a00010cea900104ea8001e4ea900114ea80083
:1024b000116ea800212ea900252ea9002b2ea900ff
:1024c0002d2ea900114ea800154ea9001b4ea900e3
:1024d0001d4ea900116ea800156ea9001b6ea90063
:1024e0001d6ea900000ea800002ea800102ea80046
:1024f000100ea80011eea8001beea9001deea90009
:10250000014ea900054ea80000eea90004eea800a7
:10251000204ea9002e4ea900244ea800008ea9002e
:102520000e8ea900012ea800206ea900106ea80032
:102530001e6ea800200ea8002e0ea800202ea800b7
:102540002e2ea8000168a9002168a90003c8a900cf
:1025500023c8a900aaf8070072fc070095ff07002e
:10256000adfa0700ebfa070000000600881f7800ac
:102570001602a800803e2000608288001602ab0090
:102580000c0032000000e900608288001800200082
:10259000080078006efc07001602ab000500320050
:1025a000608280008000e900618288000000e00015
:1025b000f7ff3a004f04780000000600881f7800fb
:1025c0001642a800803e2000608288001642ab00c0
:1025d0000c0032000000e900608288001800200032
:1025e000080078005afc07001642ab0005003200d4
:1025f000608280008000e900618288000000e000c5
:10260000f7ff3a004f04780000000600881f7800aa
:102610001622a800803e2000608288001622ab00af
:102620000c0032000000e9006082880018002000e1
:102630000800780046fc07001622ab0005003200b7
:10264000608280008000e900618288000000e00074
:10265000f7ff3a004f04780000000600881f78005a
:1026600016a2a9001682a800803e20006082880081
:102670001682ab000c0032000000e9006082880086
:10268000180020000800780031fc07001682ab001b
:1026900005003200608280008000e90061828800cd
:1026a0000000e000f7ff3a004f0478000000060049
:1026b000881f780016a2a8001682a800803e20007d
:1026c000608288001682ab000c0032000000e90036
:1026d0006082880018002000080078001cfc0700b9
:1026e0001682ab0005003200608280008000e900a5
:1026f000618288000000e000f7ff3a004f04780094
:1027000000000600881f7800803e2000608288005c
:102710001802ab000c0032000000e9006082880063
:10272000180020000800780009fc07001802ab0020
:1027300005003200608280008000e900618288002c
:102740000000e000f7ff3a004f04780000000600a8
:10275000889fbe000080fb0090108800803e200013
:102760006082880019c2ab000e0032000000e90050
:10277000608288001800200009002400080078000a
:10278000f3fb0700c11080000180640005003200e7
:10279000608280008000e900618288000000e00023
:1027a000f6ff3a00d7ff07004f04be000000060006
:1027b000889fbe0080447800d2ff07001662a80000
:1027c000803e2000608288001662ab000700320065
:1027d0000000e900608288001800200008007800ee
:1027e000dbfb07001662ab0009003a001822ab00c1
:1027f00016003a00608280008000e9006182880053
:10280000180020000000e00007003a000f00370029
:10281000608280008000e900618288000000e000a2
:10282000eeff3a00f1ff370008007800c8fb070010
:102830001822ab0005003a00608280008000e900a9
:10284000618288000000e000f7ff3a0088108000f5
:102850000904e0000200320080ff07000100370099
:1028600093ff0700084078004f04be0000000600f8
:102870003600f800809fbe00829fbe00849fbe008d
:10288000869fbe00889fbe0000e8a9007f50e2003e
:102890002e003a00244ea80034ff070017d0bf00d6
:1028a00000404000aaff070016d0bf00a8ff0700a5
:1028b00056ff070017d0bf00004040000004a000f2
:1028c000a3ff07004030ef0018d0bf00e14f5000d9
:1028d0000e00320019c0b3008881800009407800e2
:1028e000b3ff0700005c7800888188004010ec008e
:1028f0000082880081012100914078008180fb00e6
:102900008100e900808f5000f3ff3e008881800045
:102910000040eb00a6ff0700005c7800888188007b
:1029200026ff0700244ea9000210ec00108088004a
:102930008410e30005003a0000e8a90020e8a9009f
:10294000244ea80010c0b3007ff0b7004f04be00b3
:102950004f03be004f02be004f01be004f00be003d
:102960003600f90000400600e3c92600246c26006a
:1029700006003700818480008258780081848800b6
:10298000838f500001003a00848488003041780031
:102990000204e000f7ff3a00000006000650e300e2
:1029a0000200320006f0b7009bf9070000000600a5
:1029b000881f78000004780020c0b300f7ff0700ec
:1029c00040c2a900481288004022ab00feff3a0036
:1029d0004002ab00feff3200401280004f0478003e
:1029e00000000600881f7800004478008040eb005b
:1029f00010c0b300a3f907000804fb000010240076
:102a000008007000eaff070011c0b3000140780021
:102a10009cf907004f04780000000600889fbe0064
:102a200080447800014478008040eb000940780041
:102a300094f907000800fb0000e0a000dcff07009d
:102a400011c0b300094078008ef907004f04be00a2
:102a500000000600881f78000044780010c0b30012
:102a6000ceff070040c2a9000884fb00481288007e
:102a70004022ab00feff3a004002ab00feff3200f6
:102a8000401280004f047800000006000040da0089
:102a90000000fe005400f8004239880050398800d8
:102aa000613988000500fc0051052000713988005b
:102ab000a10a20007139880029e7a8000000000061
:102ac000000000005400f900000006000400a1000e
:102ad000010037000400a0005400f80050398800bd
:102ae00061398800a00f2000a00288000000eb00e0
:102af0002100240041398800f10f20003208bb007a
:102b00000400a700b20078000198bb002ca7ec00dd
:102b10008301e900f9ff3a00680151000400a700b1
:102b200068015100680050001208bb00ddff37004b
:102b3000f30f20005400f8005039880061398800f4
:102b4000a102880011002400413988000208bb005e
:102b50000388bb00d3ff37005400f80040398800d9
:102b6000d0ff3700f30f2000f50f20005400f800cd
:102b70005039880061398800a00f2000a002880029
:102b80000000eb000208bb000398bb000408bb0078
:102b90000598bb001100240041398800c1ff3700af
:102ba0005400f800a1028800800278006200400012
:102bb000e08048003549ba003204e0000410a70064
:102bc000100032008301e9000e0032002549ba00ee
:102bd0003204e0000410a7000a0032008301e9007b
:102be000080032000408a300eeff320015c9ba0045
:102bf0003204e0000410a700020032008301e90063
:0c2c0000e8ff3a005400f9000000060054
:020000040000fa
:102c0c00534a00002d3200002e300000000000005e
:020000040000fa
:1030000000000000000000000000000000000000c0
:1030100000000000000000000000000000000000b0
:1030200000000000000000000000000000000000a0
:103030000000000000000000000000000000000090
:020000040001f9
:020000040000fa
:020000040001f9
:10200000e8874700889fbe008a9fbe008c9fbe0065
:102010008e1f7800244ea90040a7a8007430ef005e
:102020007630ef00f5c00700f0012000b4c00700d3
:10203000244ea800edc926002e6c26002c09210094
:102040000000200080bf9f0021092100f1b79f0000
:10205000010037000060fe0067c007000004e000d8
:10206000fcff32009bc007008044780099c0070045
:1020700000447800244ea9000980fb008000eb009a
:1020800061005000e0805800eb0f5000e08f5800d6
:10209000e1063e00000601000b003700800037001b
:1020a000dd06370008023700db063700c5023700bf
:1020b000d30237002f03370064033700860337004d
:1020c0001e053700d1063700e24f540009003200e8
:1020d00003003e00e14f5400d1063a0018003700db
:1020e000e34f54003c003200e44f5400cc063a0069
:1020f0002500370077c007003df0b70075c0070026
:102100003cf0b700086b2600f0044400a0c00700b4
:10211000002c7800890f5400fcff3a003dd0bf002e
:10212000f1bb0700236b2600c20321001241780097
:102130008083800091838000f3bf0700c6063700cc
:1021400064c007003df0b70062c007003cf0b70074
:102150003dd0bf00e4bb0700c2032100124178005c
:10216000808380009183800013c00700086b2600e5
:10217000f00444005800780029c00700890f54007b
:10218000fcff3a00b406370081c0070010828800c7
:1021900050c007003cf0b700d3bb0700808380002d
:1021a00091838000c9bf070010828000e10f5000ba
:1021b000a906360009eb25000004eb005900780061
:1021c00017c007000804e8004210d500880f50002f
:1021d000faff3e00a00637006dc00700108288009d
:1021e0003cc007003cf0b70010828000e10f5000b7
:1021f0000800360009eb25000004eb0064c007006e
:10220000802c78000804e8004210d500880f5000a8
:10221000faff3e003cd0bf00b3bb070032002400f1
:1022200080838000918380001ac20700092020006b
:102230000004eb002aeb25008005eb0008004400b9
:102240008000400081004500110178006282880012
:102250000000e80000004000000045001002780087
:1022600074828800c241dd008083800091838000f9
:1022700000804100e0804800a0838800b18388008e
:102280008b01780037c2070000000000000000004a
:102290000804e8008904e900e8ff3a006e06370008
:1022a0000880fb008000eb0061005000e0805800d7
:1022b000f50f5000e08f58005b063e00000601005d
:1022c0006600370088003700dc003700ae003700ba
:1022d000310137003d0137005e0137004201370010
:1022e0004d013700560137004f06370046013700d1
:1022f0000900370028003700ce003700cd00370036
:10230000490637004806370047063700cb0037003c
:1023100019013700c7003700eebf07003df0b700d6
:102320001bc007001084880019c007005084880073
:102330000e70ef00a4bc0700d1032100914078008b
:102340000174a1000041eb0060c0b300cebd0700e6
:102350003d50e20002003d00bfbc07000200370014
:1023600010c0b30011f0b7007e70ef000030ef0036
:102370001c81880010848000000040000c00400098
:102380003081880073bc070001a8a90021a8a8001b
:10239000244ea90030063700cebf07000ef0b7006c
:1023a000fbbf070010828800f9bf07001084880077
:1023b000f7bf0700508488000041eb00824078009e
:1023c00060c0b300b0bd070010c0b30011f0b7008b
:1023d0007e70ef000030ef001c81880010848000c8
:1023e000800040008c804000218188004201dd0097
:1023f0000c01410042818800e600b9000c00400059
:10240000508188003181880021e3a9002343a8007e
:1024100010828000cc00de00c208dd0032f82f0000
:1024200013198000030161000281700012198800f5
:10243000f1ff2000010260008419880021e3a80058
:1024400040012000c2bc070042bc070001a8a9004f
:1024500021a8a800244ea900ff0537009dbf070052
:102460003df0b700cabf070010848800c8bf07004e
:10247000508488000e70ef00f0cf2f002223b600aa
:10248000d1032100914078000174a1000041eb00cc
:1024900010c0b3007cbd0700f0cf2f002223b60090
:1024a0003d50e20002003d006bbc07000200370017
:1024b00010c0b30011f0b7007e70ef000030ef00e5
:1024c0001c81880010848000000040000c00400047
:1024d000308188001fbc070001a8a90021a8a8001e
:1024e000244ea900dc0537007abf07003df0b70095
:1024f000a7bf070010848800a5bf0700508488008c
:1025000010c0b3000ef0b700111980000180a000c8
:102510000190a10011198800d10321009140780099
:102520000174a1000041eb0057bd070010198000a5
:102530000080a0000090a100101988001c81880074
:1025400010848000000040000c00400020818800c2
:10255000308188003d50e20002003d003ebc070093
:102560000200370010c0b30011f0b7007e70ef001a
:102570000030ef00f7bb070001a8a90021a8a800c0
:10258000244ea900b405370052bf07003df0b70044
:102590007fbf0700108488007dbf0700508488003b
:1025a00030c0b3000ef0b700101980000030b30047
:1025b00010198800d1032100914078004409de0001
:1025c00061016100efc0600010c0b3002ebd0700c4
:1025d0001c81880010848000800040008c804000b6
:1025e000218188004201dd000c0141004281880008
:1025f000e600b9000c00400050818800318188005d
:102600003d50e20002003d0013bc0700020037000d
:1026100010c0b30011f0b7007e70ef000030ef0083
:10262000ccbb070001a8a90021a8a800244ea9003e
:102630008905370000fc2f008a26b60025bf070059
:102640003df0b70052bf07001084880050bf07005c
:1026500050848800f64f540002003a004cbf070037
:102660001082880050848000e30f500002003e007a
:1026700040002000508488000e70ef00f0cf2f0043
:102680002223b60001a8a90021a8a90010c0b30008
:102690007ef0b7008210f8000010f900d10321008d
:1026a000914078000104e00005003d000174a100a4
:1026b0000041eb0080c0b300f3bc0700040037000a
:1026c0000174a1000041eb0070c0b300eebc070034
:1026d0008fba9700355888007fb09700205888003f
:1026e0000030200060588800118480008100e900db
:1026f0007158880001eba8000088a9002088a80074
:10270000f04f540002003a0024cea9001700370011
:10271000ef4f540002003a0024cea8001300370007
:10272000f64f54000d003a00108280000000e000d7
:1027300005003d0024cea80000f0a10004bc070065
:1027400024cea9000900370024cea90000f0a10082
:10275000ffbb070024cea80004003700f44f54004c
:1027600002003a0011eea90015eea90079bb07009e
:10277000244ea90038053700d6be07003df0b7004b
:1027800003bf070010828800800078003dd0bf00a2
:10279000cabd070030053700cebe07003df0b700c8
:1027a0006f40600010f0b700f9be0700e0808800bd
:1027b00000352c00408488003dd0bf000080fb0025
:1027c0004400de00f08088002305370011d0bf00f0
:1027d000004040007e50b7008abe070000808000a5
:1027e0008fbe07001c053700babe07003cf0b700db
:1027f000b8be07003df0b700804078003cd0bf0075
:1028000086c0070014053700b2be07003cf0b700d1
:1028100074c0070010053700aebe07003cf0b700db
:102820000041eb0031c0b3000140780096bc0700c6
:102830003cd0bf00b0bb070079be070006053700db
:10284000a4be07003cf0b700cabc070074be070076
:102850000105370015eea90011eea8009dbe070086
:102860003df0b700cabe070010828800c8be07004e
:102870000004780028828800108280000000440054
:10288000800f5400f4043100d103210091407800fe
:102890008180fb00108480008088b9000000440023
:1028a0000000400000004600100078005cbe0700f9
:1028b0000804e800208280004210b400880f500015
:1028c000f1ff3e00e40437000884fb008004eb00c5
:1028d00061045400e0845c0010c0b300f00f5400a9
:1028e000e08f5c00d7043e000806010010003700ae
:1028f000200037001b0037002e0037003f00370054
:102900003900370019003700260037004000370033
:102910004300370045003700680037007b00370070
:1029200082003700830037007c00370089003700c1
:102930000ebf070067be07003cf0b70084bf07006a
:10294000c1108000c0108000cf08de00c408dd0088
:102950004500de000002b20000c070000004a000cc
:10296000b804370015bf0700bb04370065bf070078
:10297000b904370057be07003df0b70074bf070029
:10298000c1108000c0108000cf08de00c408dd0048
:102990004500de000002b20000c070000004a0008c
:1029a000a80437004bbe07003df0b70068bf070022
:1029b000a704370015bf070046be07003cf0b7006c
:1029c00063bf0700c1108000c0108000cf08de0088
:1029d000c408dd004500de000002b20000c0700047
:1029e0000004a0009704370010c0b30070bf0700b8
:1029f0003cf0b70003be0700970437000040eb002f
:102a00006bbf07003cf0b700febd07009204370023
:102a10005fbe0700d083880066be07008e043700c3
:102a2000c0108000febd07008b04370029be0700e0
:102a30003cf0b70027be070034f0b70025be070002
:102a40003df0b700c9be07003cd0bf0000404000c9
:102a50003fbf070034d0bf003dbf0700ebbe0700fb
:102a60003cd0bf00004040000004a00038bf070079
:102a70003dd0bf00e14f50000b0032000004eb00de
:102a800019c0b3000940780049bf0700ddbd070049
:102a90000804e8003dd0bf000080fb000000e90012
:102aa000880f5000f7ff3e000040eb0040bf0700da
:102ab000d4bd0700c1be07006704370005be07008c
:102ac0003cf0b70003be07003df0b700a7be07000b
:102ad0003cd0bf00004040001dbf07003d50e20059
:102ae000080032000004eb00fabd070018bf070021
:102af0000804e8003dd0bf000080fb00880f5000b4
:102b0000f9ff3e00adbe0700530437001822ef0066
:102b10001702a80017e2a8004f0437001822ef00a0
:102b20001702a90017e2a8004b04370021be0700d6
:102b30004904370016be070010828800108ea900d5
:102b4000148ea90002bb0700148ea800108ea800e6
:102b500041043700dfbd070017f0b700ddbd0700f7
:102b600016f0b700dbbd070018f0b70008be07007d
:102b7000208488000230ef007f70ef008c81880095
:102b800000e8a90020e8a90011e1a9001061a9004e
:102b900011a1a800800880000040a1000050a00002
:102ba00080088800fabd0700600888000621ef0051
:102bb000244ea90011e1a80000e8a90020e8a8001f
:102bc0002504370010c0b300e14f54001d043a0043
:102bd000efbd0700108288000000e00004003d0007
:102be000f1ff200001016000d24888001a0437007c
:102bf000f1ff20008101600023498800160437009e
:102c0000ed4f54000b00320005003e00e34f54002e
:102c10002b003200e44f540005043a004200370014
:102c2000ef4f54000b003200f04f540000043a0004
:102c30004b003700a7bd07003df0b700d4bd07002b
:102c400010828800d1032100914078009db90700cf
:102c5000010437004230ef000004eb0089cb26006e
:102c6000fa1f2000cabd070008044400088444007d
:102c7000000c7800188280000804e80018828800a0
:102c80008a0f5400f7ff36004230ef000004eb00db
:102c9000890b27008fbd0700080444000884440006
:102ca0000000fb00000c7800188280000804e80097
:102cb00018828800ff0f5400f6ff3600e603370045
:102cc000b3bd070010828800b1bd070020828800d4
:102cd00080bd07003df0b7008080fb000138a300f5
:102ce0000500320063416000218280001082800074
:102cf000e0bb0700d80337000128a300050032001d
:102d0000634160002182800010828000cbb90700ff
:102d1000d10337006341600021828000108280006f
:102d20001db90700cc03370099bd07001082880049
:102d300097bd07002082880095bd0700608288004b
:102d400093bd070080017800738288006282800052
:102d50002182800010828000d4b90700be033700b2
:102d60005cbd07003df0b70087f0b70023b907004e
:102d7000b903370010c0b300e14f5400b1033a006b
:102d800054bd0700004178003df0b7008080fb0093
:102d90000148a3000a00320003fc2f00a4682000b1
:102da000148a6100e1016100c619dd00f4fb2f0007
:102db0002571800005026200048271002471880080
:102dc0000158a300080032008201d100e1816100b6
:102dd000ce19dd00f4ff2b00857080000502620033
:102de00004827100847088000168a3000c00320026
:102df0000421ef000029ef00f10f2c006368200090
:102e000093896000c710dd000120b200f3df2f00be
:102e1000a47080008481610083817000a3708800a9
:102e20000004e0008c033d0000fc2f008426b60067
:102e30004311dd000204b2000000e900140eb600e8
:102e400000007100a07088008303370010c0b30039
:102e5000e14f54007b033a0084b607009470800071
:102e60004222de0061426200967080009570800010
:102e70000354800092708000107180009170800077
:102e80004a33de0062036300c82ade00e482620087
:102e90008542730004c27200e881610083417200c0
:102ea0004511de007001610002c171000000d10017
:102eb0000002b20000407100c808de000104b20048
:102ec00081407000120ed4000008b20000c07000f3
:102ed000ccbc07005e033700ed4f54008c0032007d
:102ee00005003e00e14f540008003200ec4f540052
:102ef00051033a0032003700ee4f5400b700320061
:102f0000ef4f54004c033a00180137000028a90085
:102f10001fbd070010828800eebc07003df0b7001f
:102f2000ecbc07003cf0b700d103210091407800d1
:102f300063c16000c208de00e78060006f4060008f
:102f400013c0b30053b7070042c1a8004ac1a8008c
:102f50000028ab0008003a00108280004e01e30018
:102f6000050031000060fe000028ab0002003a00be
:102f70004e01e300fbff39000028a900700a800021
:102f8000a7bc07003dd0bf00630060000a0032000c
:102f90000004eb00200a8000a1bc0700600a80004a
:102fa0009fbc07000804e8003dd0bf00630060003c
:102fb000880f5000f7ff3e0009b8070026033700ce
:102fc000f3bc070010828800c2bc07003cf0b700c9
:102fd000c0bc07003df0b700bebc0700004278004f
:102fe00055032100844a7800d20321001241780061
:102ff0003cd0bf008482fb00c311de00674161004a
:103000008080fb00c408de006f406000c42ade0040
:103010006f426200e7c1610044b607003dd0bf00c7
:103020000068a3000a00320001fc2f00a268200003
:10303000128960000000d1000004b2008100e900a4
:1030400023718000838060008100700021718800fe
:103050001082800002022000010037000060fe00a4
:103060000028ab000800320024408000840061008a
:103070000500320035d0bf006f0060000004eb0097
:1030800004003a000c0037004e01e300f3ff390062
:10309000f8ff3700200a800061bc0700600a80004a
:1030a0005fbc07000804e80035d0bf006f00600077
:1030b000880f5000f7ff3e0035d0bf000080fb00b6
:1030c0004400de000b0032000004eb00a00a800088
:1030d00053bc0700e00a800051bc07000804e80068
:1030e00035d0bf000080fb004400de00880f500098
:1030f000f6ff3e0004a8a9000028a900700a80007d
:1031000047bc0700b6b7070011e1a900d20237009b
:103110009fbc0700108288006ebc07003cf0b7001f
:103120006cbc07003df0b700c403210014427800d6
:10313000c301de00674160008480fb00c408de003c
:103140006f406200e7c1610016b707000028ab00be
:1031500008003a00108280004e01e30005003100b3
:103160000060fe000028ab0002003a004e01e300c0
:10317000fbff3900200a800029bc0700600a80009c
:1031800027bc070004a8ab000c003a0011828000a5
:10319000750a8000818f5200080031000202200071
:1031a0000060fe00234080000300610003003a003d
:1031b000740a8000810f5200f9ff3900a00a8000d4
:1031c00017bc0700e00a800015bc0700700a8000e9
:1031d00013bc070082b707009f02370080b70700c3
:1031e0006bbc0700108288003abc07003cf0b700b7
:1031f00038bc07003df0b70036bc070035f0b7001b
:1032000034bc070036f0b700d103210091407800ac
:10321000efc0600013c0b3005203210012417800d8
:103220003cd0bf009bb6070036d0bf002f00320055
:103230008080fb000148a3000a00320002fc2f003e
:10324000a5682000950a6100610160004611dd005b
:10325000f3fb2f00247180008481610083017100e1
:10326000237188000158a300080032000001d1003a
:10327000610161004e11dd00f3ff2b0085708000bd
:103280008581610083017100837088000168a3005b
:103290000a003200f10f2c006268200012896000e1
:1032a000c700dd000120b200f2df2f00a370800014
:1032b0000301610002817000a27088000004e00038
:1032c0000a003d0001fc2f0044682000148a6000c1
:1032d0004300dd000004b2008100e900a570800019
:1032e0008580600081007000a170880042c1a80044
:1032f0004ac1a8000028ab0006003a0010828000f6
:103300004e01e300030031000060fe000028ab0026
:103310000500320035d0bf006f0060000004eb00f4
:1033200004003a000c0037004e01e300f6ff3900bc
:10333000f8ff3700200a8000b9bb0700600a800050
:10334000b7bb07000804e80035d0bf006f0060007d
:10335000880f5000f7ff3e000028a900700a800087
:10336000afbb07001eb707003b0237001cb70700c2
:1033700007bc070010828800d6bb07003cf0b700ee
:10338000d4bb07003df0b700d2bb070035f0b70053
:1033900067416000d103210091407800efc06000d8
:1033a0003cd0bf006f4060008041eb0039b60700a1
:1033b00035d0bf000d003b004400de006701600017
:1033c000d1032100914078008180fb00c408de0019
:1033d0003cd0bf000080fb004400de000042eb0058
:1033e00003c1b300deb507000c0037004400de0067
:1033f00067016000d1032100914078008180fb00cb
:10340000c408de003cd0bf000080fb004400de00aa
:103410000042eb0084417800d1b507003dd0bf00e9
:103420008080fb00c408de006f406000f9b4070034
:1034300051032100914078000104e00002003500b2
:1034400052c1a8005ac1a8000028ab0006003a00eb
:10345000108280004e01e300030031000060fe0096
:103460000028ab0004003200e78060000004eb009d
:1034700004003a000c0037004e01e300f7ff39006a
:10348000f9ff3700200a800065bb0700600a800052
:1034900063bb07000804e80035d0bf006700600088
:1034a000880f5000f7ff3e0004a8ab0009003a0067
:1034b00011828000700a8000810f500005003100e9
:1034c000020220000060fe00234080000300610033
:1034d0000600320035d0bf004400de006700600007
:1034e0000004eb0005003a000e003700740a80006b
:1034f000810f5200f3ff3900f6ff3700a00a800069
:1035000047bb0700e00a800045bb07000804e8004d
:1035100035d0bf004400de0067006000880f500017
:10352000f6ff3e0000a8a90004a8a900700a8000c8
:103530003bbb0700aab60700c70137000884fb00a1
:103540008004eb0061045400e0845c00fc0f540034
:10355000e08f5c00ba013e00080601001c00370045
:103560004f00370075003700b50137009f00370066
:10357000b3013700b2013700a80037005700370009
:10358000ba003700ae013700de003700f800370020
:10359000040137000801370018003700a801370080
:1035a00014013700a60137005d003700a401370081
:1035b000a30137001600370037003700a00137009d
:1035c0009f013700bc00370010013700460137006b
:1035d00040bb07003df0b7008080fb004709de00dc
:1035e000c508de00e3c060007f4060000cba070041
:1035f000208288000abb07009701370064bb0700e0
:103600002082880039ba070005bb07009201370005
:1036100030bb07003df0b7002ebb07003cf0b70001
:103620003be3a900d1032100914078000181fb0018
:103630004711de004c11dd00f3ff2e00d51980008c
:103640008581610083017100d31988004a00dd0083
:10365000f23f2000f31980000301610002017000b5
:10366000f2198800638060004800dd00f1cf2f0070
:10367000f41980008480600081007000f1198800d6
:103680003b03a9003be3a800803e200030b80700c0
:103690003d03a8007001370059b407006e013700e0
:1036a0000cbb07003df0b7000abb07003cf0b700b9
:1036b00037bb070020828800244ea9000001780053
:1036c000c1032100914078003dd0bf0029ba070016
:1036d000d3ba0700244ea8005f013700244ea9008a
:1036e000fcba07003df0b7006f406000bab90700b0
:1036f000010021001540800005806000fdff3200c0
:103700000388a900300880004083880041088000b9
:1037100051838800cfba0700244ea8004e0137001d
:10372000244ea900ebba07003df0b7006000b800d6
:10373000c8ba0700244ea800470137000028a90096
:1037400013bb070010828800e2ba07003df0b70003
:1037500013c0b30022c0b30041c0b3004db5070091
:1037600042c1a8004ac1a800108280004e01e300b7
:10377000070031000028ab0005003a000060fe00a1
:103780004e01e300020031000028ab00fbff3200d5
:103790000028a90001f82f00e26a200012896000c9
:1037a0004e01e300020031004881ab00030032000b
:1037b00010c0b30093ba0700020037000040eb00ce
:1037c00090ba0700200a800095ba0700600a8000be
:1037d00093ba0700200a800091ba0700600a8000af
:1037e0008fba0700feb507001b013700586029009b
:1037f000e60444005840780082ba0700890f54005c
:10380000fcff3a00c0c0b3003df0b7007dba07002e
:10381000a0c0b3007bba07000d013700dcba070077
:1038200010828800daba070020828800188280009f
:1038300008004000800f54000a0031008804e900ad
:10384000898444008c8444005900780074ba0700cd
:103850000804e800208280004210b400880f500065
:10386000f9ff3e00244ea800fb003700c8ba07004d
:1038700010828800c6ba070020828800118280006a
:1038800001014000828f5000f30031008100e90007
:10389000818040000c8040000201410001092100ac
:1038a000028140008000eb0001287800820f500068
:1038b000fdff3a00e8003700b5ba07001082880023
:1038c000b3ba0700208288001882800008004000f8
:1038d000800f5400e00031008804e900898444002e
:1038e0008c844400aaba0700802c78000804e80001
:1038f000208280004210b400880f5000f9ff3e0083
:10390000d50037007430ef007630ef00a0ba070022
:103910008000eb00f0828800018388009cba0700d9
:103920008000eb001083880021838800c000dd0048
:1039300000002000f28280000383800002007000fb
:1039400083807000a2838000b38380000000410068
:10395000818049000002eb002300200074815700a1
:103960008fbc07006fb097002dba0700ba00370070
:103970007430ef007630ef0085ba07008000eb006e
:10398000f08288000183880081ba07008000eb0084
:1039900010838800218388007dba0700e0b79f006c
:1039a000ad0037007aba0700108288001000780056
:1039b0001bba0700a800370075ba070020828800ec
:1039c00073ba070010828800218280008008780086
:1039d000a1003700800078003140780071848800b1
:1039e00008ba0700738480008d8f510001003a00ef
:1039f0007e848800708480009010e300f5ff3a0018
:103a0000a0c0b300ffb907009300370000fc2f00ef
:103a10008426b6005eba07001082880014cea80083
:103a20008041eb0012c0b30031c0b3000340780006
:103a300098b407000042eb0003c1b30012c0b3000a
:103a400021c0b3000440780045b4070021c0b30092
:103a500030c0b3006fb30700a00020003cb70700e0
:103a600014cea90011828000740a8000810f5200d8
:103a70000a00310004a8ab0008003a00020220004e
:103a80000060fe00750a8000818f52000300310043
:103a90002340800003006100f9ff32000028a900e4
:103aa00000f82f00ae26b600740a8000810f520085
:103ab000020031004881ab000300320010c0b300a7
:103ac000d0b90700020037000040eb00cdb9070075
:103ad000a00a8000d2b90700e00a8000d0b9070030
:103ae0003fb507005c003700fab907003df0b700aa
:103af00001fc2f00a5682000958a60000004e0000a
:103b000002003a0024cea80053003700e14f5000d5
:103b100002003a0024cea9004f0037004230ef00e7
:103b20004430ef000801200019002000124eab00c5
:103b30000300320000102000108288002e003700a1
:103b400024cea8000900780001b70700917080001a
:103b5000c208de00e180600020828000000040009a
:103b6000010070002082880024cea900090078009e
:103b7000f7b607000804e900f1ff3a0088002000ca
:103b80001900200024cea80009007800f0b6070034
:103b900091708000c208de00e18060001082800029
:103ba00000004000010070001082880024cea900af
:103bb00009007800e6b607000804e900f1ff3a00c2
:103bc0003dd0bf00f84f50000b003200190020001c
:103bd00024cea80009007800ddb6070024cea90095
:103be0000804e8003dd0bf000080fb0078005000d2
:103bf000880f5000f6ff3e002082800088b9070041
:103c00001082800086b90700130037000880fb008f
:103c1000bbb907001000370010c0b300090037001f
:103c200010c0b3000700370010c0b3000500370014
:103c300010c0b3000300370010c0b300010037000c
:103c400010c0b3000004e000010032009ab9070080
:103c5000244ea80000f9370010c0b300fbff370066
:020000040000fa
:020000040001f9
:103c6000f87000000c0000008200000022293600dd
:103c70000429360037380c0006030900b25e000044
:103c8000060e000080000000781000001a000000fe
:103c9000820000000a0072000220370001010100ca
:103ca0000010270010270300026400000500010037
:103cb00000c26600c266000000100000780000002c
:103cc00080000000b86c00000004000082000000ca
:103cd0000001fc0000f90000f600f30000f0000015
:103ce000ed00ea0000e60000e300e00000dd000077
:103cf000da00d70000d40000d100ce0000cb0000d5
:103d0000c800c40000c10000be00bb0000b8000035
:103d1000b500b20000af0000ac00a90000a6000092
:103d2000a400a100009e00009b00980000950000e8
:103d300092008f00008d00008a0087000084000040
:103d400082007f00007c0000790077000074000092
:103d500072006f00006c00006a00670000650000e0
:103d600062006000005d00005b005900005600002a
:103d700054005200004f00004d004b00004900006d
:103d8000460044000042000040003e00003c0000ad
:103d90003a003800003600003400320000300000e5
:103da0002f002d00002b0000290028000026000015
:103db000240023000021000020001e00001d000040
:103dc0001b001a0000190000170016000015000063
:103dd000130012000011000010000f00000e000080
:103de0000d000c00000b00000a0009000008000094
:103df000080007000006000006000500000400009f
:103e000004000300000300000200020000020000a2
:103e1000010001000001000000000000000000009f
:103e20000000000000000000000000000000000092
:103e3000000000000001000001000100000200007d
:103e40000200020000030000030004000004000060
:103e5000050006000006000007000800000800003a
:103e600009000a00000b00000c000d00000e00000d
:103e70000f001000001100001200130000150000d8
:103e800016001700001900001a001b00001d00009a
:103e90001e00200000210000230024000026000056
:103ea00028002900002b00002d002f00003000000a
:103eb000320034000036000038003a00003c0000b8
:103ec0003e0040000042000044004600004900005f
:103ed0004b004d00004f00005200540000560000ff
:103ee00059005b00005d000060006200006500009a
:103ef00067006a00006c00006f0072000074000030
:103f000077007900007c00007f00820000840000c0
:103f100087008a00008d00008f009200009500004d
:103f200098009b00009e0000a100a40000a60000d5
:103f3000a900ac0000af0000b200b50000b800005e
:103f4000bb00be0000c10000c400c80000cb0000e0
:103f5000ce00d10000d40000d700da0000dd000060
:103f6000e000e30000e60000ea00ed0000f00000e1
:103f7000f300f60000f90000fc000000010301005e
:103f800006010900010c01000f01120001150100da
:103f900019011c00011f0100220125000128010058
:103fa0002b012e000131010034013700013b0100db
:103fb0003e0141000144010047014a00014d01005a
:103fc000500153000156010059015b00015e0100e0
:103fd00061016400016701006a016d000170010068
:103fe00072017500017801007b017d0001800100f4
:103ff00083018600018801008b018d000190010082
:1040000093019500019801009a019d00019f010014
:10401000a201a40001a60100a901ab0001ad0100ad
:10402000b001b20001b40100b601b90001bb01004a
:10403000bd01bf0001c10100c301c50001c70100ee
:10404000c901cb0001cd0100cf01d00001d2010098
:10405000d401d60001d70100d901db0001dc010049
:10406000de01df0001e10100e201e40001e5010001
:10407000e601e80001e90100ea01ec0001ed0100c0
:10408000ee01ef0001f00100f101f20001f3010087
:10409000f401f50001f60100f701f70001f8010055
:1040a000f901f90001fa0100fb01fb0001fc01002c
:1040b000fc01fd0001fd0100fd01fe0001fe01000b
:1040c000fe01ff0001ff0100ff01ff0001ff0100f1
:1040d000ff01ff0001ff0100ff01ff0001ff0100e0
:1040e000fe01fe0001fe0100fd01fd0001fd0100d9
:1040f000fc01fc0001fb0100fb01fa0001f90100d9
:10410000f901f80001f70100f701f60001f50100df
:10411000f401f30001f20100f101f00001ef0100f0
:10412000ee01ed0001ec0100ea01e90001e8010007
:10413000e601e50001e40100e201e10001df010028
:10414000de01dc0001db0100d901d70001d601004e
:10415000d401d20001d00100cf01cd0001cb01007c
:10416000c901c70001c50100c301c10001bf0100b1
:10417000bd01bb0001b90100b601b40001b20100ec
:10418000b001ad0001ab0100a901a60001a401002e
:10419000a2019f00019d01009a0198000195010074
:1041a00093019000018d01008b01880001860100c0
:1041b00083018000017d01007b0178000175010011
:1041c00072017000016d01006a0167000164010065
:1041d00061015e00015b01005901560001530100bd
:1041e00050014d00014a0100470144000141010016
:1041f0003e013b000137010034013100012e010076
:104200002b0128000125010022011f00011c0100d3
:1042100019011500011201000f010c000109010034
:104220000601030001000000b8700000400000001b
:104230008200000020001a00001400000e00090097
:104240000005000002000100000000000100020063
:104250000005000009000e00001400001a002000f4
:10426000002600002c003200003700003b003e001a
:10427000003f000040003f00003e00003b003700d0
:10428000003200002c002600000000009210000008
:0c429000204e0000800000000000000034
:020000040000fa
:020000040005f5
:045fe000ccff0000f2
:020000040000fa
:020000040005f5
:045fe400ffff0000bb
:020000040000fa
:020000040005f5
:045fe80079ff00003d
:020000040000fa
:020000040005f5
:045fec007dff000035
:020000040000fa
:020000040005f5
:045ff00078ff000036
:00000001FF
