:100000000C94F7000C9414010C9414010C9414013A
:100010000C9414010C9414010C9414010C9414010C
:100020000C9414010C9414010C9414010C941401FC
:100030000C9414010C9414010C9414010C941401EC
:100040000C9414010C9414010C9414010C941401DC
:100050000C941401500C350C1E0C27092709270994
:100060002709270927092709270927092709270910
:100070002709270927092709270927092709270900
:1000800027092709270927092709270927092709F0
:1000900027092709270927092709270927092709E0
:1000A000270927096D0C640C770C4F0BDD0BC40B73
:1000B000A40B930B170CFD0B050CC80AC80ADB0C2C
:1000C000D50C8B0B800BCC0CC20C3E0BF60A27090F
:1000D00027092709270927092709270927092709A0
:1000E0002709270927092709270927092709270990
:1000F000270927092709760B6C0BB90A7E0A740AAF
:100100002709270927096A0A600A270927092709F1
:10011000270927092709270927092709270927095F
:10012000270927092709270927092709270927094F
:10013000270927092709270927092709270927093F
:10014000270927094E0A2E0A180ADD092709270957
:10015000270927092709270927092709270927091F
:10016000270927092709270927092709270927090F
:1001700027092709270927092709270927092709FF
:1001800027092709270927092709270927092709EF
:1001900027092709A80986092709270927092709FF
:1001A00027092709270927092709270927092709CF
:1001B00027092709270927092709270927092709BF
:1001C00027092709270927092709270927092709AF
:1001D000270927092709270927092709270927099F
:1001E0002709270955093E096579312E3000112468
:1001F0001FBECFE5D8E0DEBFCDBF10E0A0E6B0E087
:10020000E6E0FCE102C005900D92A636B107D9F7F1
:1002100017E0A6E6B0E001C01D92AA37B107E1F7EA
:100220000E94B9080C94010E0C9400001F93982FA3
:1002300081EC86B94431510570F04832510508F01F
:1002400049C082EC8093740708C081E040345807AD
:1002500008F44FC086EC8093740782E08EBD9066F0
:1002600097B941505040AF9A349BFECF329A1092CA
:100270007907109278076115710541F110917407A3
:10028000A0917607B0917707FD01E759FF4F20E075
:1002900030E01DBC1CBC16B9349BFECF85B18083F9
:1002A000329A8CB590E084179507D8F32F5F3F4FB3
:1002B00031962617370768F3A60FB71FB093770755
:1002C000A0937607709379076093780716B8AF9874
:1002D0001F9108954035510540F0403A510508F00E
:1002E000B4CF84EC80937407B8CF83EC8093740709
:1002F000B4CF85EC80937407B0CFEF92FF920F9349
:100300001F93CF93DF93A42F482F50E09A012170C1
:100310003070220F331F2160B82FB270B16044706B
:100320005070559547954160A25082E08EBDAF9ABE
:1003300010927907109278076115710509F468C069
:100340000091760710917707E801C759DF4FE0E089
:10035000F0E093E0E92E50E134E18CE1F82E1CBC92
:10036000E8BA52BB32BB52BB32BB48BB52BB32BBFA
:10037000B8BB52BB32BB28BB52BB32BB32BB52BB39
:1003800052BB32BB52BB32BB52BB32BB96B352BB29
:1003900032BB86B39170990F8170982B52BB32BBE0
:1003A00086B3990F8170982B52BB32BB86B3990FDD
:1003B0008170982B52BB32BB86B3990F8170982BFA
:1003C00052BB32BB86B3990F8170982B52BB32BBA4
:1003D00086B3990F8170982B52BB32BB86B3990FAD
:1003E0008170982BF2BA8CB58A17E8F399933196FD
:1003F000E617F70708F4B3CF70937907609378078F
:10040000060F171F109377070093760790937307D3
:10041000AF98DF91CF911F910F91FF90EF900895CA
:10042000EF92FF920F931F93CF93DF93A42F482F48
:1004300050E09A0121703070220F331F2160B82FD5
:10044000B270B16044705070559547954160A250AC
:1004500082E08EBDAF9A10927907109278076115ED
:10046000710509F46BC00091760710917707E801D8
:10047000C759DF4FE0E0F0E093E0F92E50E134E1BE
:100480008CE1E82E1CBCF8BA52BB32BB52BB32BB6B
:1004900048BB52BB32BBB8BB52BB32BB28BB52BB02
:1004A00032BB32BB52BB52BB32BB52BB32BB52BB64
:1004B00032BB96B352BB32BB86B39170990F817039
:1004C000982B52BB32BB86B3990F8170982B52BBCD
:1004D00032BB86B3990F8170982B52BB32BB86B367
:1004E000990F8170982B52BB32BB86B3990F8170E4
:1004F000982B52BB32BB86B3990F8170982B52BB9D
:1005000032BB86B3990F8170982BE2BA8CB58A17EB
:10051000E8F300000000000099933196E617F70712
:1005200008F4B0CF7093790760937807060F171F10
:10053000109377070093760790937307AF98DF9136
:10054000CF911F910F91FF90EF9008950F931F93FC
:10055000CF93DF93DC0182E08EBD660F6250AF9ACD
:100560001092790710927807109709F4B1C0C091E2
:100570007607D0917707FE01E759FF4F40E050E042
:1005800073E030E124E111E00CE11CBC78BB32BB2C
:1005900022BB32BB22BB18BB32BB22BB32BB22BB4D
:1005A00032BB22BB22BB32BB32BB22BB32BB22BB23
:1005B00032BB22BB86B332BB22BB96B38170880F9D
:1005C0009170892B32BB22BB96B3880F9170892B17
:1005D00032BB22BB96B3880F9170892B32BB22BBF2
:1005E00096B3880F9170892B32BB22BB96B3880FCC
:1005F0009170892B32BB22BB96B3880F9170892BE7
:1006000032BB22BB96B302BB880F9170892B8083CB
:1006100078BB32BB22BB32BB22BB18BB32BB22BB76
:1006200032BB22BB78BB32BB22BB22BB32BB32BB4C
:1006300022BB32BB22BB32BB22BB96B332BB22BB36
:1006400086B39170990F8170982B32BB22BB86B311
:10065000990F8170982B32BB22BB86B3990F8170A2
:10066000982B32BB22BB86B3990F8170982B32BB7B
:1006700022BB86B3990F8170982B32BB22BB86B305
:10068000990F8170982B32BB22BB86B3990F817072
:10069000982B02BB8CB58617E8F39183000000000D
:1006A0004F5F5F4F32964A175B0708F46ECF229672
:1006B000B0937907A093780790937307A150B0483F
:1006C000AA0FBB1FCA0FDB1FD0937707C093760713
:1006D000AF98DF91CF911F910F910895AF92BF9284
:1006E000CF92DF92EF92FF920F931F93CF93DF93FE
:1006F0007B01EA01482F50E09A0121703070220FEF
:10070000331FCC24C394C22A282F22702160447046
:100710005070559547954160229782E08EBDAF9A03
:100720001092790710927807E114F10409F4B2C02D
:10073000D0906000609176077091770700E010E03C
:1007400093E0B92EA0E1B4E18CE1A82E1DBC1CBC45
:10075000B8BAA2BBA2BBB2BBB2BBA2BBA2BBB2BB6C
:1007600048BBA2BBA2BBB2BB28BBA2BBA2BBB2BB55
:10077000C8BAA2BBA2BBB2BBB2BBB2BBB2BBB2BB1C
:10078000B2BBA2BBA2BBB2BBB2BBB2BBB2BBB2BB21
:10079000B2BBA2BBA2BBB2BBB2BBA2BBA2BBB2BB31
:1007A00036B3A2BBA2BBB2BB86B33170330F81702C
:1007B000382BA2BBA2BBB2BB86B3330F8170382BE0
:1007C000A2BBA2BBB2BB86B3330F8170382BA2BBD6
:1007D000A2BBB2BB86B3330F8170382BA2BBA2BBC6
:1007E000B2BB86B3330F8170382BA2BBA2BBB2BBA6
:1007F00086B3330F8170382BA2BBA2BBB2BB86B3CA
:10080000330F8170382BA2BBA2BBB2BB56B3A2BBC5
:10081000A2BBB2BB86B35170550F8170582BA2BBDF
:10082000A2BBB2BB86B3550F8170582BA2BBA2BB33
:10083000B2BB86B3550F8170582BA2BA81E08D15DB
:1008400048F4FB01E759FF4F852F8295807F808315
:100850006F5F7F4FFB01E759FF4F30836F5F7F4F23
:100860008CB59DB58C179D07D8F3000000000000E3
:100870000F5F1F4F0E151F0508F468CF70937707A1
:1008800060937607F0927907E092780750937407A7
:1008900030937307AF98DF91CF911F910F91FF9025
:1008A000EF90DF90CF90BF90AF9008955F926F92DE
:1008B0007F928F929F92AF92BF92CF92DF92EF92F0
:1008C000FF920F931F93CF93DF934C01EB01C15025
:1008D000D048CC0FDD1F82E08EBDAF9A1092790711
:1008E000109278078114910409F439C16090600076
:1008F000A0917607B0917707AA24BB24E3E07E2E6F
:1009000040E154E1CC24C3947CE1572E1DBC1CBCB7
:1009100078BA42BB42BB52BB52BB42BB42BB52BB8A
:10092000C8BA42BB42BB52BBC8BA42BB42BB52BBB5
:10093000C8BA42BB42BB52BB52BB52BB52BB52BBFA
:1009400052BB42BB42BB52BB52BB52BB52BB52BB5F
:1009500052BB42BB42BB52BB52BB42BB42BB52BB6F
:1009600086B342BB42BB52BBD6B242BB42BB52BBB8
:10097000E6B242BB42BB52BBF6B242BB42BB52BB29
:1009800006B342BB42BB52BB16B342BB42BB52BBD7
:1009900076B342BB42BB52BB66B342BB42BB52BB07
:1009A00096B342BB42BB52BBE6B342BB42BB52BB57
:1009B00036B342BB42BB52BB26B352BAF1E0F61586
:1009C00088F49170990FE1709E2B990F3170932BE1
:1009D000FD01E759FF4F990F2170922B9295907F5F
:1009E000908311968170880F91E0D9228D29880F0C
:1009F000E9228E29880FF9228F29880F0170802B18
:100A0000880F1170812B880F7170872BFD01E759BA
:100A1000FF4F880F6170862B8083119678BA42BB96
:100A200042BB52BB52BB42BB42BB52BBC8BA42BB29
:100A300042BB52BBC8BA42BB42BB52BB78BA42BBF4
:100A400042BB52BB52BB52BB52BB52BB52BB42BB5E
:100A500042BB52BB52BB52BB52BB52BB52BB42BB4E
:100A600042BB52BB52BB42BB42BB52BB26B342BB92
:100A700042BB52BB86B32170220F8170282B42BB30
:100A800042BB52BB86B3220F8170282B42BB42BBB4
:100A900052BB86B3220F8170282B42BB42BB52BB94
:100AA00086B3220F8170282B42BB42BB52BB86B358
:100AB000220F8170282B42BB42BB52BB86B3220F50
:100AC0008170282B42BB42BB52BB86B3220F817080
:100AD000282B42BB42BB52BB36B342BB42BB52BBCC
:100AE00086B33170330F8170382B42BB42BB52BB8F
:100AF00086B3330F8170382B42BB42BB52BB86B3E7
:100B0000330F8170382B52BAF1E0F61540F4FD0135
:100B1000E759FF4F832F8295807F80831196FD01D7
:100B2000E759FF4F208311968CB59DB58C179D0713
:100B3000D8F30000000000000894A11CB11CA81408
:100B4000B90408F4E3CE3093740720937307B0938D
:100B50007707A09376079092790780927807AF98ED
:100B6000DF91CF911F910F91FF90EF90DF90CF9089
:100B7000BF90AF909F908F907F906F905F900895FF
:100B800043E048BB20E122BB22BB94E192BB92BB75
:100B900022BB22BB92BB282F82FF8DC048BB80E1C5
:100BA00082BB82BB84E182BB21FF82C083E088BB21
:100BB00080E182BB82BB84E182BB20FF76C083E000
:100BC00088BB80E182BB82BB94E192BB82BB82E0A6
:100BD0008EBD1DBC1CBC909161008CB58917E8F3DB
:100BE00054E152BB52BB90E192BB92BB52BB52BB91
:100BF00092BB92BB52BB46B392BB92BB52BB86B375
:100C00004170440F8170482B92BB92BB52BB86B39C
:100C1000440F8170482B92BB92BB52BB86B3440FEA
:100C20008170482B4093730792BB92BB52BB26B393
:100C300092BB92BB52BB86B32170220F8170282BCE
:100C400092BB92BB52BB86B3220F8170282B92BB02
:100C500092BB52BB86B3220F8170282B92BB92BBF2
:100C600052BB86B3220F8170282B92BB92BB52BB22
:100C700086B3220F8170282B92BB92BB52BB86B3E6
:100C8000220F8170282B92BB92BB52BB86B3220FDE
:100C90008170282B209374078CE182BB30E0942F65
:100CA00080E0282B392BC901089581E088BB89CFCA
:100CB00081E088BB7DCF81E088BB71CF282F30E0F9
:100CC000B90161707070660F771F6160827081601A
:100CD0002470307035952795216093E098BB50E1E2
:100CE00052BB44E142BB52BB42BB28BB52BB42BBDE
:100CF00088BB52BB42BB68BB52BB42BB42BB52BB70
:100D000052BB42BB52BB42BB52BB42BB86B352BB7F
:100D100042BB96B38170880F9170892B52BB42BB46
:100D200096B3880F9170892B52BB42BB96B3880F44
:100D30009170892B52BB42BB96B3880F9170892B5F
:100D400052BB42BB96B3880F9170892B52BB42BBFA
:100D500096B3880F9170892B52BB42BB96B3880F14
:100D60009170892B809373078CE182BB089598E082
:100D700092BB880F816088BB92BB92BB8CE082BB28
:100D800082BB23E028BB92BB92BB82BB82BB28BB49
:100D900092BB92BB82BB82BB28BB92BB92BB82BB85
:100DA00082BB20E038E041E0A1E0F3E0E8E05CE075
:100DB0000AC0F8BBE2BBE2BB52BB52BB36952795DB
:100DC0004F5F4D3039F0CB0182239323892B89F774
:100DD000A8BBF0CF8CE08093730730937907209302
:100DE00078078CE182BB0895282F3091680008C0F5
:100DF00083B3822349F48CB59DB58155934C40F45F
:100E00002223B1F74599F7CF3093680081E0089528
:100E10001DBC1CBC3F5F393298F33093680084E5F9
:100E20008093690080E00895482F50916800282F32
:100E300030E00DC083B390E080959095822393239A
:100E4000892B49F48CB59DB58155934C40F44423CE
:100E500089F7459BF7CF5093680081E008951DBC4A
:100E60001CBC5F5F593298F35093680084E580930F
:100E7000690080E00895282F1092680030E008C0D3
:100E800083B3822349F48CB59DB58155934C50F4BE
:100E90002223B1F74599F7CF1DBC1CBC1092680006
:100EA00081E008951DBC1CBC3F5F393288F330934C
:100EB000680084E58093690080E00895482F1092CF
:100EC000680050E0282F30E00DC083B390E080959B
:100ED000909582239323892B49F48CB59DB5815538
:100EE000934C50F4442389F7459BF7CF1DBC1CBCA1
:100EF0001092680081E008951DBC1CBC5F5F5932F0
:100F000088F35093680084E58093690080E0089539
:100F1000282F3091680008C083B3822349F48CB530
:100F20009DB58155934C18F52223B1F74599F7CF1C
:100F30003093680080917607909177072CB5FC017B
:100F4000E759FF4F208301962DB5FC01E759FF4F6C
:100F500020830196FC01E759FF4F20916800208310
:100F60000196909377078093760781E008951DBCE2
:100F70001CBC3F5F3932C0F23093680084E5809337
:100F8000690080E00895482F50916800282F30E0D4
:100F90000DC083B390E08095909582239323892B95
:100FA00049F48CB59DB58155934C18F5442389F7C8
:100FB000459BF7CF50936800809176079091770713
:100FC0002CB5FC01E759FF4F208301962DB5FC019C
:100FD000E759FF4F20830196FC01E759FF4F20910D
:100FE000680020830196909377078093760781E0CD
:100FF00008951DBC1CBC5F5F5932C0F2509368005D
:1010000084E58093690080E008951F93182F1DBC2C
:101010001CBC1092680080917507843009F48FC061
:10102000853078F0863009F449C0863008F03EC03B
:10103000809167000E94F40684E4809369001F9108
:101040000895813009F471C0813008F040C01092D9
:10105000790710927807812F0E945E0680917307AE
:10106000809374071DBC1CBC8CB59DB54497E0F300
:10107000812F0E945E0690917307809174078917F3
:1010800040F480916300981720F0809164008917E4
:1010900098F6809178079091790701969093790757
:1010A00080937807883C9105B0F2C6CF8730C1F1B4
:1010B000883011F6809167000E94F40680916700E5
:1010C0000E94140784E4809369001F910895823080
:1010D000E1F0833009F0B0CF85B340916700842BF5
:1010E00085BB1DBC1CBC80916200282F30E08CB5F4
:1010F0009DB582179307D8F385B34095482345BB28
:1011000084E4809369001F91089595B380916700EE
:101110008095892385BB84E4809369001F9108959D
:10112000809167000E94140783CF85B39091670078
:10113000892B85BB84E4809369001F91089585B352
:1011400040916700942F9095982395BB1DBC1CBCC3
:1011500080916200282F30E08CB59DB582179307EF
:10116000D8F385B3842B85BB84E4809369001F91F9
:1011700008952F923F924F925F926F927F928F923B
:101180009F92AF92BF92CF92DF92EF92FF920F9316
:101190001F93DF93CF93CDB7DEB72E970FB6F8949A
:1011A000DEBF0FBECDBF8FE18ABB1BBA8AE087BB13
:1011B00080EF84BB8CE981BB83E085BB88E18AB981
:1011C00010BC8CE089B986EA80BD80E488B982E0F1
:1011D0008EBD109277071092760714E4C12E80918D
:1011E000760790917707FC01E759FF4F0196880F2A
:1011F000991F880F991F880F991F9C01220F331F79
:10120000220F331F280F391F5F9BFECF8CB18193B4
:1012100060916900A901485D5F4F862F90E08217B9
:10122000930710F09A01F0CF109268001DBC1CBC0F
:10123000C092690021E030E0309377072093760771
:10124000862F90E0FC013197EA3CF10578F093E4B9
:101250009093690083E45D9BFECF8CB9843409F4DC
:10126000B0C31092770710927607B9CFE65DFF4FB3
:10127000EE0FFF1F0590F491E02D0994B0906C00E3
:10128000AA2460916B0070E06A297B2990906E001F
:10129000882440916D0050E04829592980916A00C6
:1012A0000E94160180916900D6CFF0906A0070907C
:1012B0006C00662480916B00082F10E00629172926
:1012C00040916D0020916E008091600090E0BC0123
:1012D000069FC001079F900D169F900D1124895005
:1012E000974078F4522E4424842F90E08429952945
:1012F0009E878D878431910520F0895E934008F4A4
:1013000030C4F1E4F093690081E4A5CF10916A0044
:10131000F0916C00FC831B8280916B00E82EFF240F
:101320002B813C81E22AF32A60916D0039E0E316BB
:1013300037E0F30640F470E06A30710520F065365E
:10134000710508F42BC441E44093690081E483CF24
:1013500030906B00222480916A00082F10E002294F
:10136000132960916C0030916D0020916000822FF4
:1013700090E0880F991FAC01409FC001419F900DE4
:10138000509F900D11248950974090F43A83198210
:10139000E62EFF2469817A81E62AF72A74E1E716AE
:1013A000F10430F089EEE81683E0F80608F4C6C3CD
:1013B00091E49093690081E44ECF70916B007C873B
:1013C0001B8680916A00E82EFF248B859C85E82A85
:1013D000F92AF0927907E0927807D0906C00109289
:1013E0007407DD2009F448C11E861D86009176072A
:1013F000109177078D859E858E0D9F1D0E94EC0DA7
:10140000F801E759FF4F80830F5F1F4F1093770755
:10141000009376078D858F5F80937407ED85FE8539
:101420003196FE87ED87ED1528F38091690013CF83
:1014300050916B005A87198680916A0090E0698507
:101440007A85862B972B9093790780937807609104
:101450006C000E94F40D80916900FDCE50916B00EC
:101460005E831D8280916A00082F10E06D817E816D
:10147000062B172B60916C00C801880F991F8950AB
:10148000974040F470E06A30710520F065367105D0
:1014900008F449C381E480936900DDCEF0916C00CB
:1014A000F8871F8260916B0070E02F813885622B76
:1014B000732B80916A000E94B70680916900CBCEA1
:1014C00080916A00882309F0DAC280916B008BBB9F
:1014D00084E4C1CE80916A00882309F0DCC2809147
:1014E0006B008ABB84E4B7CE80916A00809363006E
:1014F00080916B008093640084E4ADCE80916A009B
:101500008F70809374071DBC1CBC109268000E94F1
:101510001407882309F489CF809174070E943B0740
:10152000882309F482CF809174070E9414078823CE
:1015300069F47BCF809174070E94F406882369F0D8
:10154000809174070E941407882339F080916B0002
:10155000815080936B008F5F69F7809169008435BB
:1015600009F479CE809174070E9488078091690000
:1015700072CE80916A00853008F050C28093750762
:1015800080916B008295807F8093670084E463CEB6
:1015900080916A00282F207F20937307382F3F7097
:1015A0003093740780916600882309F458C285B38C
:1015B000822B85BB1DBC1CBC909162008CB5891729
:1015C000E8F385B32095282325BB109268001DBC45
:1015D0001CBC8CB59DB50597E0F3643309F46CC26F
:1015E000832F0E94C3078091690035CE78E673BDD2
:1015F00089E185BD1DBC1CBC8CB59DB5845C994042
:10160000D8F315BC1DBC1CBC8CB59DB5845F914046
:10161000D8F330916A00309374071092730727E073
:1016200049E145BD1DBC1CBC8CB59DB5845F914096
:10163000D8F315BC1DBC1CBC8CB59DB5845F914016
:10164000D8F337FDDDC1330F215050F788E0809388
:1016500073073093740799E195BD1DBC1CBC8CB514
:101660009DB5845F9140D8F315BC1DBC1CBC8CB5E6
:101670009DB5845F9140D8F384E4EDCD80916A00FC
:10168000882309F0D7C189B380936A0022E030E053
:10169000309377072093760780916900DCCD909195
:1016A0006A00892F82958F70809373079F70909343
:1016B00074070E941407882309F4B7CE809173073A
:1016C0000E943B07882309F4B0CE809174070E94E2
:1016D000C30780916900BFCD80916A0087708861DF
:1016E00085BD80916B0083BD84E4B5CD80916A0097
:1016F0008770886183BF80916B008CBF84E4ABCD21
:1017000080916A00883008F086C187B948E040BF00
:1017100016B884E4A0CD80916A008295807F8360B2
:1017200085BB84E498CD95B380916A00282F207FF3
:10173000292B25BB109268001DBC1CBC8F700E9419
:1017400088078091690087CD90916A00892F8295E2
:101750008F70809373079F70909374070E94F406B4
:10176000882309F462CE809173070E945E07882364
:1017700009F45BCE809174070E94F406882309F077
:10178000A4CF8091690067CD90916A00892F8295DE
:101790008F70809373079F70909374070E94F40674
:1017A000882309F442CE809173070E945E07882344
:1017B00009F0D8CE809169004ECD90916A00892FB2
:1017C00082958F70809373079F70909374070E9427
:1017D0001407882309F429CE809173070E943B07E0
:1017E000882309F422CE809174070E94140788236D
:1017F00009F0B8CE809169002ECD95B380916A0032
:10180000282F207F2095292394CF95B380916A00BB
:10181000282F207F2095292325BB109268001DBC0E
:101820001CBC8F700E94C3078091690014CD95B3D2
:1018300080916A00282F207F292BEECFAC9A1DBC07
:101840001CBC909162008CB58917E8F3AC9810929B
:1018500068001DBC1CBC8CB59DB50597E0F384E009
:101860000E94880780916900F6CC25E027B938E00E
:1018700030BF16B823B388B190E080729070959510
:101880008795959587952770282B20936A0042E0CD
:1018900050E0509377074093760780916900DBCC46
:1018A0008AE690E068EE71E045E050E00E94E30DCA
:1018B00080917607909177070596909377078093AC
:1018C000760780916900C7CC80916A00833008F068
:1018D0006FCD8093600084E4BECC80916A008B3F22
:1018E00008F4E6C0E1E4E093690081E4B4CC8091BF
:1018F0006A000E94C00590937907809378078091D1
:101900006A000E94C0052091780730917907280F5E
:10191000391F309379072093780780916A000E94DD
:10192000C0052091780730917907280F391F30932F
:1019300079072093780780916A000E94C005209162
:10194000780730917907280F391F369527953695F6
:1019500027953093790720937807809176079091A7
:101960007707FC01E759FF4F20830196FC01E759F7
:10197000FF4F30830196909377078093760780918D
:10198000690069CC80916A00882309F441C08CBF4A
:1019900069E663BF84E45FCC80916A008823C1F16B
:1019A0008CBF5BE653BF84E456CC80916A00809381
:1019B000660084E450CC80916A008093620084E4E5
:1019C0004ACCE1E0F0E0F0937907E09378074091AA
:1019D0007607509177074230510508F442CCEAE689
:1019E000F0E09A0127593F4F5D9BFECF81918CB962
:1019F000E217F307C9F7509379074093780731CC82
:101A00001DBC1CBC8CB59DB5845F9140D8F31BCE2A
:101A100013BE84E420CC10BE84E41DCC893008F0D1
:101A200073C08093750780916B008F7080936700FF
:101A300084E411CC813009F45BC0823009F44CC0DD
:101A4000833009F019CE80B380936A0082E090E081
:101A5000909377078093760780916900FCCB95B3CC
:101A6000822F8095892385BB1DBC1CBC9091620090
:101A70008CB58917E8F385B3282B25BBA6CD81301B
:101A800031F18230F9F0833009F0F6CD80916B00AE
:101A900082BB84E4E0CB813009F440C08230C9F1DC
:101AA000833009F0E9CD80916B0081BB84E4D3CB16
:101AB0008093610084E4CFCB832F0E9488078091BC
:101AC0006900C9CB80916B0085BB84E4C4CB809155
:101AD0006B0088BB84E4BFCB83B380936A0062E071
:101AE00070E0709377076093760780916900B3CBBD
:101AF00086B380936A0042E050E0509377074093AA
:101B0000760780916900A7CB31E43093690081E4C6
:101B1000A2CB80916B0084BB84E49DCB80916B0051
:101B200087BB84E498CB80E00E940508C8016091DF
:101B30006C000E94A602809169008DCB20936A0000
:101B4000E2E0F0E0F0937707E093760780E0B701FA
:101B50000E940508C801B7010E94560480916900DF
:101B60007ACB8F2D6D857E850E9405088091760742
:101B700090917707FC01E759FF4F20916000208387
:101B8000019690937707809376078F2DB8014D8546
:101B90005E850E946E03809169005DCB812F0E945B
:101BA000050840916D004A3039F0812FB7010E943D
:101BB0001002809169004FCB812FB7010E947D01F7
:101BC0008091690048CBFB01DC0102C005900D92B9
:101BD00041505040D8F70895E199FECF9FBB8EBB8E
:101BE000E09A99278DB30895262FE199FECF9FBBE8
:101BF0008EBB2DBB0FB6F894E29AE19A0FBE019608
:061C00000895F894FFCFE7
:061C060001C80D7D830002
:00000001FF
